:020000040800F2
:100000000080002069110008310300083303000854
:10001000350300083703000839030008000000001A
:100020000000000000000000000000003B0300088A
:100030003D030008000000003F03000841030008E2
:10004000B9110008B9110008B9110008B911000868
:10005000B9110008B9110008B9110008B911000858
:10006000B9110008B9110008B9110008B911000848
:10007000B9110008B9110008B9110008B911000838
:10008000B9110008B9110008B9110008B911000828
:10009000B9110008B9110008B9110008B911000818
:1000A000B9110008B9110008B9110008B911000808
:1000B000B9110008B9110008B9110008B9110008F8
:1000C000B9110008B9110008B9110008B9110008E8
:1000D000B9110008B9110008B9110008B9110008D8
:1000E000B9110008B9110008B9110008B9110008C8
:1000F000B9110008B9110008B9110008B9110008B8
:10010000000000000000000000000000B91100081D
:10011000B9110008B9110008B9110008B911000897
:10012000B9110008B9110008B9110008B911000887
:10013000B9110008B911000800000000000000001B
:10014000B9110008B9110008B91100080000000039
:10015000000000000000000000000000000000009F
:100160000000000000000000B9110008B9110008EB
:10017000B9110008000000000000000000000000AD
:0801800000000000B9110008A5
:1001880010B5054C237833B9044B13B10448AFF3C9
:1001980000800123237010BD0C0000200000000027
:1001A8001412000808B5034B1BB103490348AFF309
:1001B800008008BD00000000100000201412000894
:1001C80070B58AB0002406940794089409942A4BC1
:1001D8005A6942F400225A615A6902F400220192D3
:1001E800019A5A6942F480025A615A6902F48002FB
:1001F8000292029A5A6942F400325A615A6902F428
:1002080000320392039A5A6942F480225A615B6968
:1002180003F480230493049B4EF6C073059305A949
:10022800164800F03FFE032605960694079405A994
:10023800134800F037FE44F60443059306940794E8
:10024800104D05A9284600F02DFE4FF4C85305931C
:100258000694079405A94FF0904000F023FE202350
:100268000593012306930896079405A9284600F0EC
:1002780019FE0AB070BD00BF001002400008004817
:10028800001400480004004830B59FB02022002127
:1002980015A800F0B3FF00240F9410941194129441
:1002A80013943C222146684600F0A8FF02251495C5
:1002B80001231893102319931B954FF460131D9372
:1002C80014A800F0B3F80F230F93109511944FF46E
:1002D80080631293139429460FA800F0E3FB40F2C1
:1002E8008113009302944FF4807309934FF40053E1
:1002F8000A93684600F0A6FC1FB030BD08B500F0B0
:100308005DF8FFF7C1FFFFF75BFF08BD08B5FFF712
:10031800F5FF2021034800F08FFE322000F072F82C
:10032800F7E700BF000400487047FEE7FEE7FEE776
:10033800FEE770477047704708B500F051F808BDF0
:1003480082B00A4B9A6942F001029A619A6902F0F6
:1003580001020092009ADA6942F08052DA61DB69A0
:1003680003F080530193019B02B0704700100240D4
:1003780010B504460E4B18784FF47A73B3FBF0F3BC
:100388000C4A1068B0FBF3F000F0A0FE68B90F2C1F
:1003980001D901200AE0002221464FF0FF3000F089
:1003A80061FE054B1C60002000E0012010BD00BF6D
:1003B80000000020080000200400002008B5074ABB
:1003C800136843F010031360032000F039FE002087
:1003D800FFF7CEFFFFF7B4FF002008BD0020024062
:1003E800034A1168034B1B780B441360704700BF26
:1003F8002800002000000020014B1868704700BF4B
:100408002800002038B50446FFF7F6FF0546B4F18A
:10041800FF3F02D0044B1B781C44FFF7EDFF401B45
:10042800A042FAD338BD00BF00000020002800F029
:10043800EB8270B582B00446036813F0010F3BD01D
:10044800B54B5B6803F00C03042B1ED0B24B5B6802
:1004580003F00C03082B13D06368B3F5803F68D012
:10046800002B40F0928003F1804303F504331A68AF
:1004780022F480321A601A6822F480221A605DE041
:10048800A54B5B6813F4803FE6D04FF4003393FA32
:10049800A3F3A14B19684FF4003393FAA3F3B3FA0B
:1004A80083F303F01F03012202FA03F30B4203D084
:1004B8006368002B00F0AA82236813F0020F00F093
:1004C800C580954B5B6813F00C0F00F09C80924B35
:1004D8005B6803F00C03082B00F08F802369002B66
:1004E80000F0F280012292FAA2F3B3FA83F303F147
:1004F800845303F584139B001A60FFF77DFF0546BC
:10050800022393FAA3F3844B1968022393FAA3F303
:10051800B3FA83F303F01F03012202FA03F30B4239
:1005280040F0C380FFF768FF401B0228E8D903208A
:1005380075E2794A136843F480331360764AD36AC4
:1005480023F00F03A1680B43D3626368002B36D0F6
:10055800FFF752FF05464FF4003393FAA3F36E4BAF
:1005680019684FF4003393FAA3F3B3FA83F303F053
:100578001F03012202FA03F319429DD1FFF73CFF42
:10058800401B6428E7D9032049E2B3F5A02F09D01E
:10059800614B1A6822F480321A601A6822F48022A9
:1005A8001A60CBE703F18043A3F53C331A6842F4A1
:1005B80080221A601A6842F480321A60BEE7FFF798
:1005C8001BFF05464FF4003393FAA3F3524B196807
:1005D8004FF4003393FAA3F3B3FA83F303F01F0342
:1005E800012202FA03F319423FF466AFFFF704FF52
:1005F800401B6428E6D9032011E2474B5B6813F4DB
:10060800803F7FF46BAF022393FAA3F3424B196840
:10061800022393FAA3F3B3FA83F303F01F0301222F
:1006280002FA03F3194203D02369934240F0F081A0
:100638003948036823F0F8036169F82292FAA2F2B4
:10064800B2FA82F201FA02F213430360236813F04C
:10065800080F00F08D80A369002B61D0012191FA69
:10066800A1F2B2FA82F22D4B13449B001960FFF7F6
:10067800C3FE0546022393FAA3F293FAA3F293FA70
:10068800A3F2254A516A93FAA3F3B3FA83F303F06A
:100698001F03012202FA03F30B4269D1FFF7ACFEF4
:1006A800401B0228E6D90320B9E11B48036823F060
:1006B800F8036169F82292FAA2F2B2FA82F201FA18
:1006C80002F213430360C1E7012393FAA3F3B3FAD9
:1006D80083F303F1845303F584139B0000221A600B
:1006E800FFF78AFE0546022393FAA3F30A4B19681B
:1006F800022393FAA3F3B3FA83F303F01F0301224F
:1007080002FA03F31942A1D0FFF776FE401B022834
:10071800E9D9032083E100BF001002402081901036
:10072800012292FAA2F2B2FA82F2BF4B13449B0062
:1007380000221A60FFF760FE0546022393FAA3F22F
:1007480093FAA3F293FAA3F2B84A516A93FAA3F37D
:10075800B3FA83F303F01F03012202FA03F30B42F7
:1007680006D0FFF749FE401B0228E6D9032056E1D0
:10077800236813F0040F00F0A980AC4BDB6913F079
:10078800805F20D1A94BDA6942F08052DA61DB69D7
:1007980003F080530193019B0125A54B1B6813F4BB
:1007A800807F12D0E368012B23D073BB03F1804311
:1007B80003F504331A6A22F001021A621A6A22F057
:1007C80004021A621AE00025E7E7994A136843F41D
:1007D80080731360FFF710FE0646954B1B6813F4F1
:1007E800807FDFD1FFF708FE801B6428F5D903203E
:1007F80015E18E4A136A43F001031362E368002B84
:100808003CD0FFF7F9FD06462EE0052B09D0874BB3
:100818001A6A22F001021A621A6A22F004021A62A3
:10082800ECE7824B1A6A42F004021A621A6A42F032
:1008380001021A62E2E7022393FAA3F37B4B596A97
:10084800022393FAA3F3B3FA83F303F01F030122FD
:1008580002FA03F3194238D1FFF7CEFD801B41F2AB
:100868008833984200F2D680022393FAA3F293FACF
:10087800A3F3002BDFD06D4B196AE1E7FFF7BCFD4E
:10088800064618E0022393FAA3F3684B596A022339
:1008980093FAA3F3B3FA83F303F01F03012202FAD6
:1008A80003F3194211D0FFF7A7FD801B41F28833EB
:1008B800984200F2B180022393FAA3F293FAA3F3C9
:1008C800002BDFD0594B196AE1E7B5BBE369002B70
:1008D80000F0A480554A526802F00C02082A00F081
:1008E800A080022B2FD04FF0807393FAA3F3B3FAB2
:1008F80083F303F1845303F584139B0000221A60E9
:10090800FFF77AFD04464FF0007393FAA3F3474BC1
:1009180019684FF0007393FAA3F3B3FA83F303F063
:100928001F03012202FA03F319426BD0FFF764FD9B
:10093800001B0228E7D9032071E03C4AD36923F061
:100948008053D361C2E74FF0807393FAA3F3B3FAED
:1009580083F303F1845303F584139B0000221A6088
:10096800FFF74AFD05464FF0007393FAA3F32F4BA8
:1009780019684FF0007393FAA3F3B3FA83F303F003
:100988001F03012202FA03F3194206D0FFF734FDD0
:10099800401B0228E7D9032041E024494B6823F48F
:1009A8007413626A206A024313434B604FF08073EA
:1009B80093FAA3F3B3FA83F303F1845303F584138F
:1009C8009B0001221A60FFF717FD04464FF00073E1
:1009D80093FAA3F3154B19684FF0007393FAA3F336
:1009E800B3FA83F303F01F03012202FA03F3194257
:1009F80006D1FFF701FD001B0228E7D903200EE00E
:100A080000200CE000200AE001207047012006E0E9
:100A1800012004E0032002E0032000E0002002B0EF
:100A280070BD0120FBE700BF20819010001002403C
:100A380000700040164B5B6803F00C02082A01D0D6
:100A48001448704703F470114FF4701292FAA2F22E
:100A5800B2FA82F221FA02F20F49885C0C4AD26A91
:100A680002F00F020F2191FAA1F1B1FA81F1CA4007
:100A78000A498A5C13F4803F05D0064BB3FBF2F3B6
:100A880000FB03F07047064B03FB00F0704700BF04
:100A98000010024000127A002C1200083C120008D4
:100AA80000093D00002800F0BD8070B50446614B88
:100AB8001B6803F007038B420BD25E4A136823F0CE
:100AC80007030B431360136803F007038B4240F0DE
:100AD800AB80236813F0020F06D0574A536823F0FF
:100AE800F003A068034353600D46236813F0010F19
:100AF8005AD06368012B2DD0022B40D0022292FAE3
:100B0800A2F24D4A1068022292FAA2F2B2FA82F2D6
:100B180002F01F02012101FA02F2104200F0868061
:100B280045494A6822F0030213434B60FFF764FC0F
:100B38000646414B5B6803F00C036268B3EB820F17
:100B480032D0FFF759FC801B41F288339842F0D924
:100B5800032066E04FF4003292FAA2F2364A106897
:100B68004FF4003292FAA2F2B2FA82F202F01F02B5
:100B7800012101FA02F20242D2D1012051E04FF0E4
:100B8800007292FAA2F22C4A10684FF0007292FAA0
:100B9800A2F2B2FA82F202F01F02012101FA02F275
:100BA8001042BDD101203CE0224B1B6803F0070333
:100BB800AB420AD91F4A136823F007032B4313607B
:100BC800136803F00703AB4232D1236813F0040F14
:100BD80006D0194A536823F4E063E1680B43536075
:100BE800236813F0080F07D0134A536823F460539F
:100BF800216943EAC1035360FFF71CFF0E4B5B6892
:100C080003F0F003F02292FAA2F2B2FA82F2D34091
:100C18000A4AD35CD8400A4B18600020FFF7A8FBAB
:100C2800002070BD012070470120FAE70120F8E795
:100C38000120F6E700200240001002404C12000894
:100C480008000020F0B583B00446036813F4803F21
:100C580048D0914BDB6913F0805F40F0D5808E4B14
:100C6800DA6942F08052DA61DB6903F0805301935C
:100C7800019B0125894B1B6813F4807F00F0C68017
:100C8800854B1B6A13F4407322D0626802F44072E9
:100C98009A421DD08048016A21F440764FF480338F
:100CA80093FAA3F2B2FA82F27D4F3A4492004FF0DF
:100CB800010CC2F800C093FAA3F3B3FA83F33B44E0
:100CC8009B0000221A60066211F0010F40F0B38009
:100CD800714A136A23F4407361680B431362002D51
:100CE80040F0D080236813F0010F06D06A4A136BD6
:100CF80023F00303A1680B431363236813F0020F67
:100D080006D0654A136B23F44033E1680B43136341
:100D1800236813F0040F06D05F4A136B23F44023B3
:100D280021690B431363236813F0200F06D05A4A36
:100D3800136B23F01003E1690B431363236813F467
:100D4800003F06D0544A536823F48003A16B0B4339
:100D58005360236813F0400F06D04F4A136B23F0FB
:100D68002003216A0B431363236813F0080F06D08E
:100D7800494A136B23F4401361690B4313632368D7
:100D880013F0100F06D0444A136B23F44003A169F3
:100D98000B431363236813F4007F06D03E4A53685D
:100DA80023F40003E16A0B435360236813F0800FB8
:100DB80006D0394AD36A23F4F873616A0B43D362C5
:100DC800236813F4807F06D0334AD36A23F4785318
:100DD800A16A0B43D362236813F4805F06D02E4ABE
:100DE800136B23F48073216B0B431363236813F491
:100DF800005F4ED0284A136B23F40073616B0B43DA
:100E08001363002003B0F0BD002533E7234A1368BD
:100E180043F480731360FFF7EFFA06461F4B1B6815
:100E280013F4807F7FF42CAFFFF7E6FA801B642869
:100E3800F4D90320E6E7FFF7DFFA064615E0164B7C
:100E4800196A022393FAA3F3B3FA83F303F01F0397
:100E5800012202FA03F30B427FF43AAFFFF7CCFA10
:100E6800801B41F28833984211D8022393FAA3F2E7
:100E780093FAA3F3002BE2D1022393FAA3F3064BD0
:100E8800596ADEE7D36923F08053D3612AE7032048
:100E9800B8E70020B6E700BF00100240007000402D
:100EA80000819010F0B482B0002336E0042400E002
:100EB8000024B4403C4302355B4E46F825405B4C69
:100EC8002568D44304EA05064F6817F4803F01D02B
:100ED80042EA0506554D2E606D6804EA05064F681E
:100EE80017F4003F01D042EA0506504D6E60AD6828
:100EF80004EA05064F6817F4801F01D042EA050688
:100F08004A4DAE60ED682C404E6816F4001F01D0C3
:100F180042EA0504454AD46001330A6832FA03F408
:100F28007ED001249C402240F6D04D68022D01D08D
:100F3800122D10D1DE08083650F826C003F0070538
:100F4800AF000F25BD402CEA050C0D69BD4045EAF0
:100F58000C0540F8265006685F000325BD40ED43A8
:100F680005EA060C4E6806F00306BE4046EA0C0683
:100F780006604E6806F1FF3CBCF1010F03D9112E43
:100F880001D0122E10D1866805EA060CCE68BE4044
:100F980046EA0C068660466826EA04044E68C6F3EC
:100FA80000169E4026434660C46825408C68BC40B5
:100FB8002C43C4604C6814F0805FADD01C4CA5690C
:100FC80045F00105A561A46904F001040194019CA0
:100FD8009D08AE1C144C54F8267003F00304A600B8
:100FE8000F24B44027EA0407B0F1904F3FF460AFF4
:100FF800104CA0420ED004F58064A0420CD004F539
:101008008064A0420AD004F58064A0423FF44EAF49
:1010180005244EE701244CE702244AE7032448E765
:1010280002B0F0BC704700BF00000140000401405E
:10103800001002400004004843695940416170476C
:10104800074AD36823F4E0631B041B0C000200F476
:10105800E060184340F0BF6040F40030D060704753
:1010680000ED00E030B4174BDB68C3F30223C3F193
:101078000704042C28BF04241D1D062D01D9033B99
:1010880000E000234FF0FF3505FA04F421EA0401DB
:10109800994005FA03F322EA03031943002809DB00
:1010A8000901C9B200F1604000F5614080F8001301
:1010B80030BC704700F00F000901C9B2024B195447
:1010C800F6E700BF00ED00E014ED00E00138B0F1F4
:1010D800807F0AD2064B5860064AF02182F8231016
:1010E8000020986007221A6070470120704700BFEF
:1010F80010E000E000ED00E01549D1F8883043F435
:101108007003C1F88830134B1A6842F001021A6064
:101118005868114A02405A601A6822F0847222F410
:1011280080321A601A6822F480221A605A6822F4FF
:10113800FE025A60DA6A22F00F02DA62186B074A76
:1011480002401A6300229A604FF000638B60704778
:1011580000ED00E0001002400CC07FF8CCFC00FF5E
:10116800DFF834D0002103E00C4B5B5843500431C6
:101178000B480C4B42189A42F6D30B4A02E0002364
:1011880042F8043B094B9A42F9D3FFF7B5FF00F048
:1011980011F8FFF7BBF8FEE7008000206412000892
:1011A800000000200C0000200C0000202C00002073
:1011B800FEE7000070B50D4D0D4C641BA410002611
:1011C800A64209D10B4D0C4C00F020F8641BA4106A
:1011D8000026A64205D170BD55F8043B9847013654
:1011E800EEE755F8043B98470136F2E75C12000831
:1011F8005C1200085C1200086012000802440346F2
:10120800934200D1704703F8011BF9E7F8B500BF16
:10121800F8BC08BC9E467047F8B500BFF8BC08BCCF
:041228009E46704727
:10122C0002030405060708090A0B0C0D0E0F10101B
:10123C000102030405060708090A0B0C0D0E0F101A
:10124C00000000000000000001020304060708096A
:04125C00AD010008D8
:0412600089010008F8
:0C126400010000001000000000127A00E1
:040000050800116975
:00000001FF
