:020000040800F2
:1000000000800020D92D0008F1080008F30800083E
:10001000F5080008F7080008F908000800000000CB
:10002000000000000000000000000000FB080008C5
:10003000FD08000800000000FF0800080109000892
:10004000292E0008292E0008292E0008292E000834
:10005000292E0008292E0008292E0008292E000824
:10006000292E0008292E0008292E00080909000859
:10007000292E0008292E0008292E0008292E000804
:10008000292E0008292E0008292E0008292E0008F4
:10009000292E0008292E0008292E0008292E0008E4
:1000A000292E0008292E0008292E0008292E0008D4
:1000B000292E0008292E0008292E0008292E0008C4
:1000C000292E0008292E0008292E0008292E0008B4
:1000D000292E0008292E0008292E0008292E0008A4
:1000E000292E0008292E0008292E0008292E000894
:1000F000292E0008292E0008292E0008292E000884
:10010000000000000000000000000000292E000890
:10011000292E0008292E0008292E0008292E000863
:10012000292E0008292E000819090008292E000888
:1001300029090008292E0008000000000000000026
:10014000292E0008292E0008292E00080000000092
:10015000000000000000000000000000000000009F
:100160000000000000000000292E0008292E0008D1
:10017000292E000800000000000000000000000020
:0801800000000000292E000818
:1001900010B5054C237833B9044B13B10448AFF3C1
:1001A00000800123237010BDC80000200000000063
:1001B000D436000808B5034B1BB103490348AFF31D
:1001C000008008BD00000000CC000020D4360008EC
:1001D00001F0FF01102A2BDB10F0070F08D010F8F8
:1001E000013B013A8B422DD010F0070F42B3F6D1FC
:1001F000F0B441EA012141EA014122F007047FF015
:1002000000070023F0E80256083C85EA010586EA6B
:10021000010685FA47F5A3FA87F586FA47F6A5FAA7
:1002200087F68EB9EED1F0BC01F0FF0102F00702B3
:1002300032B110F8013B013A83EA010313B1F8D15E
:100240000020704701387047002D06BF354603383F
:10025000073815F0010F07D1013015F4807F02BF78
:10026000013015F4C03F0130F0BC0138704700BFC9
:1002700070B58AB0002405940694079408940994F4
:10028000364B5A6942F400225A615A6902F400223C
:100290000192019A5A6942F480025A615A6902F441
:1002A00080020292029A5A6942F400325A615A69F3
:1002B00002F400320392039A5A6942F480225A618E
:1002C0005B6903F480230493049B22464FF40041AE
:1002D0004FF0904002F036FC214D2246282128465E
:1002E00002F030FC4EF6C07305930694079405A9FE
:1002F0001C4802F05DFB032305930694079405A9AF
:10030000194802F055FB44F60443059306940794FC
:1003100005A9284602F04CFB4FF4C85305930694F8
:10032000079405A94FF0904002F042FB4FF40043C0
:100330000593012606960794089405A94FF090406E
:1003400002F036FB2823059306960794089405A926
:10035000284602F02DFB0AB070BD00BF001002401D
:1003600000040048000800480014004800B583B0AD
:10037000164B5A6942F001025A615A6902F00102B1
:100380000092009A5A6942F002025A615B6903F0D6
:1003900002030193019B002211460B2002F092FC04
:1003A0000B2002F0C3FC002211463A2002F08AFC26
:1003B0003A2002F0BBFC002211463C2002F082FCF5
:1003C0003C2002F0B3FC03B05DF804FB00100240D7
:1003D0002DE9F0418AB0002507950895099501950A
:1003E00002950395049505950695364C4FF0A0436C
:1003F00023606560A56001262661E661656225636C
:10040000E662E5600927276266634FF00408C4F8D6
:100410001480A561A563204600F070FC079507A92C
:10042000204600F085FF01960296049503950595F8
:1004300006950DEB0801204600F0A6FD022301936E
:1004400002930DEB0801204600F09EFD032301936B
:1004500002930DEB0801204600F096FDCDF80480D4
:10046000CDF808800DEB0801204600F08DFD052336
:10047000019302930DEB0801204600F085FD062351
:10048000019302930DEB0801204600F07DFD072348
:10049000019302930DEB0801204600F075FD08233F
:1004A000019302930DEB0801204600F06DFD0197CA
:1004B00002970DEB0801204600F066FD0AB0BDE88A
:1004C000F08100BFCC0100202DE9F04186B000256D
:1004D000009501950295039504950595234C244BB1
:1004E00023606560A56001262661E661656225637B
:1004F000E662E5604FF00608C4F8208066630427D2
:100500006761A561A563204600F0F8FB009601969F
:1005100003950295049505956946204600F034FD43
:100520000223009301936946204600F02DFD03232A
:10053000009301936946204600F026FD009701973D
:100540006946204600F020FD05230093019369468B
:10055000204600F019FD0B230093CDF80480694676
:10056000204600F011FD06B0BDE8F08178010020C2
:1005700000010050F0B58BB0002407940894099452
:10058000019402940394049405940694164D174B19
:100590002B606C60AC6001262E61EE616C622C6396
:1005A000EE62EC6002272F626E6304236B61AC6124
:1005B000AC63284600F0A2FB079407A9284600F088
:1005C000B7FE01960296049403940594069401A93B
:1005D000284600F0D9FC0C230193029701A9284674
:1005E00000F0D2FC0BB0F0BD20020020000400504F
:1005F00008B50F480F4B03604FF48273436000232C
:1006000083604FF44062C260036143614FF4802213
:1006100082612822C26180220262436283620722D1
:10062000C26203630823436300F0FCFF08BD00BF00
:10063000140100200038004008B50948094B036048
:100640004FF4E133436000238360C36003610C22F5
:1006500042618361C3610362436201F0AAFB08BD8A
:10066000740200200038014030B59FB020220021E4
:1006700015A802F0FFFB00240F941094119412941B
:1006800013943C222146684602F0F4FB022514959F
:1006900001231893102319931B954FF460131D9396
:1006A00014A801F017FC0F230F93109511944FF429
:1006B00080631293139429460FA801F047FF40F27C
:1006C0008113009302944FF4807309934FF4005305
:1006D0000A93684602F03CF81FB030BD08B501F03F
:1006E000C1FBFFF7C1FFFFF7C3FDFFF73FFEFFF7B9
:1006F0006FFEFFF7E9FEFFF73DFFFFF779FFFFF71A
:100700009BFF62B608BD704770B5054600220188A0
:10071000806802F017FA172621E00022A9882869CC
:1007200002F010FA01226988E86802F00BFA013C35
:1007300064B2002C11DB00226988E86802F002FA3A
:10074000114B33F81630234113F0010FE5D001228D
:10075000A988286902F0F6F9E4E7013E36B2002ED6
:1007600001DB0B24E5E700226988E86802F0EAF97A
:1007700001222988A86802F0E5F900222988A868E2
:1007800002F0E0F970BD00BF480300200023172BE2
:1007900005DC034A002122F813100133F7E7704704
:1007A00048030020002303E0064A22F81300013327
:1007B000172B05DCB0F5805FF6D340F6FF70F3E74A
:1007C000704700BF4803002010B582B0044601F016
:1007D0001F0141EA4212ADF806204FF0FF3301221B
:1007E0000DF10601C06800F07AFF00226188A06860
:1007F00002F0A8F9002001F059FB01226188A068ED
:1008000002F0A0F902B010BD38B5054600220188FB
:10081000406802F097F9002001F048FB0122298886
:10082000686802F08FF90024172C06DC0022E1B280
:100830002846FFF7C9FF0134F6E738BD00B585B09B
:10084000FFF74CFF40F6FF70FFF7ACFF2248FFF7C1
:100850005BFF224E01227188B06802F073F9012219
:100860003188706802F06EF906F110041C4D0FCD4E
:100870000FC495E80F0007C423801A4B03CBC6F8BA
:100880002E00C6F832101B88F3863046FFF7BCFFF7
:10089000BDF80E201449684602F0F4FA4FF0FF3319
:1008A0000D226946114801F0E5F9FFF76FFF0A4C88
:1008B0002046FFF729FF4FF4FA7001F0F7FA4FF4E2
:1008C0008050FFF76FFF2046FFF71EFF4FF4FA70CE
:1008D00001F0ECFADCE700BF0C0000202000002053
:1008E000E400002000000020EC3600087402002024
:1008F0007047FEE7FEE7FEE7FEE770477047704788
:1009000008B501F0C1FA08BD08B5024802F06EF959
:1009100008BD00BFBC03002008B5024802F066F91C
:1009200008BD00BF0004002008B5024802F05EF9CF
:1009300008BD00BF7803002082B00A4B9A6942F0DC
:1009400001029A619A6902F001020092009ADA6942
:1009500042F08052DA61DB6903F080530193019B1E
:1009600002B070470010024070B58EB004460023FC
:1009700009930A930B930C930D930368B3F1A04F63
:1009800008D07B4A934266D07A4A934200F0B980FD
:100990000EB070BD784A136801331360012B4CD040
:1009A000764B5A6942F400225A615A6902F40022D5
:1009B0000192019A5A6942F400325A615A6902F46A
:1009C00000320292029A5A6942F480025A615B69CB
:1009D00003F480030393039B0F25099503260A96CE
:1009E00009A9674801F0E4FF09950A9600250B95CF
:1009F00009A94FF0904001F0DBFF102309930A96FC
:100A00000B9509A95F4801F0D3FF5F485F4B036076
:100A1000456085608023C3604FF4807303614FF4A9
:100A20008063436185614FF40053C36102F0B6F8FF
:100A300070B9554BE3635C62AAE7504B5A6942F0C8
:100A400080525A615B6903F080530093009BA7E7D3
:100A5000FFF759FEEDE7484A136801331360012B95
:100A600041D0464B5A6942F400325A615A6902F445
:100A700000320592059A5A6942F400225A615B6974
:100A800003F400230693069BF023099303250A959C
:100A900009A94FF0904001F08BFF302309930A958C
:100AA00000250B9509A9364801F082FF3848394BDB
:100AB0000360456085608023C3604FF480730361E9
:100AC0004FF48063436185614FF40053C36102F0CA
:100AD00065F898B9304A136843F4807313602C4B5F
:100AE000E3635C6254E7254B5A6942F080525A61D5
:100AF0005B6903F080530493049BB2E7FFF703FEA6
:100B0000E8E71E4B5A6942F000525A615A6902F0F6
:100B100000520792079A5A6942F480225A615B692F
:100B200003F480230893089B032309930A9309A9DC
:100B30001A4801F03DFF1A481A4B03600023436036
:100B400083608022C2604FF4807202614FF4806241
:100B5000426183614FF40053C36102F01FF818B97A
:100B60000F4BE3635C6213E7FFF7CDFDF8E700BFCF
:100B70000001005000040050040100200010024059
:100B80000008004800140048BC0300200800024090
:100B9000000400203004024000000140000400482E
:100BA000780300205804024000B589B00023039365
:100BB00004930593069307930268144B9A4202D05C
:100BC00009B05DF804FB03F5EC33DA6942F48042C6
:100BD000DA61DA6902F480420192019A5A6942F4B8
:100BE00080225A615B6903F480230293029B4FF4D5
:100BF00030430393022304930323069305230793AF
:100C000003A9034801F0D4FEDAE700BF0038004032
:100C10000004004800B589B00023039304930593B2
:100C2000069307930268144B9A4202D009B05DF80C
:100C300004FB03F558439A6942F480429A619A6929
:100C400002F480420192019A5A6942F400325A61D8
:100C50005B6903F400330293029B4FF4C063039378
:100C600002230493032306930723079303A94FF05A
:100C7000904001F09DFED9E70038014038B5026888
:100C8000936803F00303012B01D0002038BD1368E3
:100C900013F0010F2FD0936803F00D03012B09D03F
:100CA000436C43F010034364836C43F0010383649B
:100CB0000120EBE70446936843F002039360036866
:100CC00003221A6001F0ECF8054623689B6813F0D4
:100CD000010F0ED001F0E4F8401B0228F5D9636C37
:100CE00043F010036364A36C43F00103A364012089
:100CF000CCE70020CAE70020C8E7000030B597B075
:100D000000230093002800F02D810446436C13F06B
:100D1000100F52D1436CABB1002023689A6812F0D7
:100D2000805F03D09B6813F0005F47D0636C23F0B3
:100D3000120343F010036364A36C43F00103A36444
:100D400001203BE083640365C36480F84030FFF713
:100D50000BFE23689B6813F0805F01D00020DCE766
:100D60002046FFF78BFF636C13F0100FD5D10028DE
:100D7000D3D1636C23F4885323F0020343F00203BE
:100D800063642268936823F04053936022689368F9
:100D900043F080539360744B1B68744AA2FB032397
:100DA0009B0C03EB83035A00009202E0009B013B83
:100DB0000093009B002BF9D1AFE70020636C13F088
:100DC000100F40F0C680002840F0C3802368996867
:100DD00011F0040140F0BD80626C22F4817242F097
:100DE00002026264B3F1A04F14D0614A93420FD063
:100DF000604DB3F1A04F0FD05D4A934265D05E4A7B
:100E0000934266D05D4A934267D00022019205E08A
:100E10005B4DEEE75A4DECE7554A01929A6802F0B5
:100E20000302012A5DD0019B23B19A6802F00302FC
:100E3000012A5BD0AB6823F4403362681343AB6094
:100E4000E2695303A56B012D01D04FF480510B4390
:100E5000E1680B43A1680B43616A01294BD0E26A48
:100E6000012A0AD02168444DA94257D005F5807562
:100E7000A94253D0216B0A4313432268916811F0B1
:100E80000C0F0BD1D16821F4804121F00201D16017
:100E9000A169626B520042EA813213432168CD6836
:100EA000384A2A401343CB602369012B48D022687B
:100EB000136B23F00F0313630023A364636C23F00D
:100EC000030343F0010363644AE04FF0A042019240
:100ED000A4E702F580720192A0E7A2F58072019268
:100EE0009CE71B6813F0010FAAD19CE71B6813F065
:100EF000010FA5D19EE732B9A26A013A43EA424303
:100F000043F48033ABE7626C22F0220242F020020D
:100F10006264A26C42F00102A264A0E7B2F5307FE5
:100F200008D0B2F5807F08D0B2F5E07FA2D14FF4AF
:100F300080729FE74FF4E0729CE74FF4307299E7BC
:100F400021680B6B23F00F03226A013A13430B63F2
:100F5000B2E7636C23F0120343F0100363640120D3
:100F600017B030BD0120FBE76000002083DE1B438B
:100F70000001005000070050000400500005005020
:100F80000003005007C0F0FF30B496B0002200927A
:100F900090F84020012A00F0B8810346012280F831
:100FA00040200068826812F0040F40F0A3814A6874
:100FB000042A31D8046B02EB420255001F22AA40DA
:100FC00024EA02020C68AC4022430263186882687B
:100FD00012F00C0F68D10A68092A4ED9846902EB15
:100FE00042021E3A0725954024EA05048D6805FA59
:100FF00002F22243826148691C68E268C2F3C102BE
:10100000520000FA02F208690138032800F29580C4
:10101000DFE800F040727D88092A0ED8446B02EBAD
:10102000420255001E3D1F22AA4024EA02020C681B
:1010300004FA05F52A434263C8E70E2A0ED8846BEA
:1010400002EB420255003C3D1F22AA4024EA020264
:101050000C6804FA05F52A438263B7E7C46B02EB18
:10106000420255005A3D1F22AA4024EA02020C689F
:1010700004FA05F52A43C263A8E7446902EB420279
:101080000725954024EA05048D6805FA02F22243FB
:101090004261B0E7206E9E4D0540086842EA8062DA
:1010A000154345F0004525661868826802F0030282
:1010B000012A72D0CA68012A75D0D0F8B0200D6814
:1010C0000124AC4022EA0402C0F8B0201A68B2F150
:1010D000A04F00F093808F48824200F08D808E4CAC
:1010E0000868102800F08C80112800F09D801228DC
:1010F00000F09F80002002E1606E854D0540086889
:1011000042EA8062154345F000456566CCE7A06E73
:101110007F4D0540086842EA8062154345F000456E
:10112000A566C1E7E56E7A4828400D6842EA856207
:10113000024342F00042E266B6E7226E02F0F84255
:101140000868B2EB806F03D1226E22F00042226663
:101150001A68506E00F0F8400C68B0EB846F03D151
:10116000506E20F0004050661A68906E00F0F84013
:101170000C68B0EB846F03D1906E20F00040906655
:101180001A68D06E00F0F8400C68B0EB846F8BD119
:10119000D06E20F00040D06686E7026812F0010FA2
:1011A00088D00020ABE0D0F8B0200D680124AC401E
:1011B0002243C0F8B0200A68092A0ED91D68A86920
:1011C00002EB42021B3A0724944020EA04008C6898
:1011D00004FA02F20243AA6178E71D6868690132E5
:1011E00002EB42020724944020EA04008C6804FACF
:1011F00002F202436A6169E7484C71E7474C6FE7C6
:10120000A56815F4000F7FF46FAFB2F1A04F16D0B0
:10121000404882422CD0424882422DD041488242EE
:101220002DD0002201920DE0A56815F0807FECD052
:101230005DE7A06810F4800FE7D000205FE002F5C2
:10124000807201921868826802F00302012A19D0A4
:10125000019A22B1956805F00305012D1CD00A689A
:10126000102A1ED0112A36D0122A3DD0002046E086
:101270004FF0A0420192E5E72A4A0192E2E7284AAC
:101280000192DFE7026812F0010FE1D05A6C42F0E0
:1012900020025A64012032E0126812F0010FF5D1E9
:1012A000DDE7B0F1A04FDDD1A26842F40002A260F8
:1012B0001D4A12681D49A1FB0212920C02EB820228
:1012C0005100009102E0009A013A0092009A002A2F
:1012D000F9D1002013E0B0F1A04FC5D1A26842F0CF
:1012E0008072A26000200AE0A26842F48002A2603C
:1012F000002004E05A6C42F020025A6401200022CF
:1013000083F8402016B030BC70470220FAE700BFD7
:1013100000F0FF8300010050000700500003005060
:1013200000040050000500506000002083DE1B43D5
:1013300070B497B003460268B2F1A04F0BD04D488D
:10134000824248D04C48824249D04C4882424AD0DE
:101350000020019001E0474801900198002800F02A
:10136000848093F84040012C00F08180012483F8B0
:101370004040946814F0040F6CD1846814F0040F9A
:1013800068D1B2F1A04F34D03A4CA2422FD03C4A9F
:101390000C68002C3BD0946824F460444D685E6B6C
:1013A00045EA46352C4394601D68AC6804F003049C
:1013B000012C20D0846804F00304012C21D0906813
:1013C00020F4716020F00F000C6889680C43204302
:1013D0009060002043E04FF0A0400190BDE700F591
:1013E00080700190B9E7A0F580700190B5E7254ABB
:1013F000CEE7244ACCE72C6814F0010FDAD00020A5
:101400002DE0006810F0010FD9D0002027E091688E
:1014100021F4604191601C68A16801F00301012979
:101420000CD0816801F0030101290DD0916821F4ED
:10143000716121F00F019160002010E0216811F02E
:10144000010FEED000200AE0016811F0010FEDD08D
:10145000002004E05A6C42F020025A64012000226D
:1014600083F8402017B070BC70470120FAE70220D3
:10147000F8E700BF000100500004005000050050D4
:101480000007005000030050F8B505460F46164609
:101490001C4639E02CB100F003FD069BC01AA042A7
:1014A00032D32A68536823F0E00353606B68B3F5C6
:1014B000827F0BD0AB6AB3F5005F14D0012385F8AF
:1014C0005D30002385F85C30032025E0AB68B3F580
:1014D000004F02D0B3F5806FECD12A68136823F077
:1014E00040031360E6E72A68136823F4005313608F
:1014F0002A68136843F400531360DFE70123B34203
:1015000009D0B4F1FF3FC5D12B689B6837EA0303CC
:10151000F4D00023F3E70020F8BDF0B583B0074610
:101520000C4615461E4602E0B6F1FF3F10D13A6860
:1015300093682340AB423FD0B4F5C06FF4D1002D87
:10154000F2D1137BDBB28DF807309DF80730EBE763
:101550002EB100F0A5FC089BC01AB042E7D33A6850
:10156000536823F0E00353607B68B3F5827F0BD0B0
:10157000BB6AB3F5005F14D0012387F85D30002308
:1015800087F85C30032018E0BB68B3F5004F02D049
:10159000B3F5806FECD13A68136823F04003136011
:1015A000E6E73A68136823F4005313603A68136857
:1015B00043F400531360DFE7002003B0F0BD70B5C3
:1015C00082B004460D46164600920B4600224FF4A8
:1015D000C051FFF7A2FFB8B900962B460022802128
:1015E0002046FFF751FFB8B900962B4600224FF472
:1015F000C0612046FFF791FF034650B1236E43F0D0
:1016000020032366032304E0236E43F020032366B4
:101610000323184602B070BD236E43F020032366F7
:101620000323F6E7002858D010B504460023836250
:1016300090F85D30002B45D0022384F85D3022689D
:10164000136823F040031360E368B3F5E06F3ED9FD
:101650000022B3F5706F04D0B3F5E06F01D0002124
:10166000A162216B21B9B3F5E06F33D90223236363
:101670006368A1680B4321690B4361690B43A1694E
:1016800001F400710B43E1690B43216A0B43A06A2B
:10169000216803430B60638B03F00403616A0B430F
:1016A000616B0B43E1680B43216813434B60226875
:1016B000D36923F40063D36100202066012384F8FA
:1016C0005D3010BD80F85C30FFF76EFAB4E74FF480
:1016D0008052BEE701232363CAE7012070472DE94A
:1016E000F04182B01E4690F85C30012B00F0D180B2
:1016F00004460D469046012380F85C3000F0D0FB94
:10170000074694F85D30DBB2012B40F0B280002D2B
:1017100000F0B980B8F1000F00F0B780032384F81F
:101720005D3000232366A563A4F83C80A4F83E80C6
:101730002364A4F84430A4F846302365E364A36826
:10174000B3F5004F1BD023681A6812F0400F03D185
:101750001A6842F040021A60E368B3F5E06F30D9CE
:1017600063681BB1E38F9BB2012B12D1236835F85C
:10177000022BDA60E38F013B9BB2E38709E022682A
:10178000136843F480431360DDE7C6B1B6F1FF3F51
:1017900010D1E38F9BB2002B56D023689A6812F0C9
:1017A000020FF2D035F8022BDA60E38F013B9BB2D7
:1017B000E387EEE700F074FBC01BB042E9D30320DF
:1017C00058E063681BB1E38F9BB2012B21D1E38FFB
:1017D0009BB2012B08D9236835F8022BDA60E38F1E
:1017E000023B9BB2E38714E0236815F8012B1A73C0
:1017F000E38F013B9BB2E3870BE015F8012B1A73D3
:10180000E38F013B9BB2E38703E0DEB1B6F1FF3F1C
:1018100013D1E38F9BB2BBB123689A6812F0020F19
:10182000F3D0E28F92B2012AE7D935F8022BDA60C1
:10183000E38F023B9BB2E387EBE700F031FBC01B79
:10184000B042E6D3032015E03A4631462046FFF782
:10185000B6FE08B120232366A36833B90193236839
:10186000DA6801929B680193019B236E7BB900208B
:1018700000E00220012384F85D30002384F85C300E
:1018800002B0BDE8F0810120F4E70120F2E7012079
:10189000F0E70220F4E7000010B50446836802690F
:1018A000134342691343C2691A4301680B6823F466
:1018B000164323F00C0313430B600268536823F4B0
:1018C0004053C1680B4353608369026A1A4301683D
:1018D0008B6823F4306313438B600268954B9A4204
:1018E0000DD0954B9A421DD0944B9A4243D0944BC5
:1018F0009A4258D0934B9A426DD0102327E003F5BB
:1019000058431B6B03F00303032B09D8DFE803F0F4
:101910000204067B01231AE0042318E0082316E0E2
:10192000102314E003F5E6331B6B03F44033B3F5E7
:10193000803F6AD007D9B3F5003F68D0B3F5403F88
:1019400017D1022303E00BB9002300E01023E16963
:10195000B1F5004F69D0082B00F2E980DFE813F001
:10196000AD00B900C500E700D100E700E700E700DF
:10197000DD001023EBE703F5E4331B6B03F4402396
:10198000B3F5802F45D007D9B3F5002F43D0B3F579
:10199000402F06D10223DAE70BB90023D7E7102343
:1019A000D5E71023D3E703F5E2331B6B03F44013B1
:1019B000B3F5801F31D007D9B3F5001F2FD0B3F591
:1019C000401F06D10223C2E70BB90023BFE7102353
:1019D000BDE71023BBE703F5E0331B6B03F44003C3
:1019E000B3F5800F1DD007D9B3F5000F1BD0B3F5A9
:1019F000400F06D10223AAE70BB90023A7E7102363
:101A0000A5E71023A3E70223A1E704239FE7082308
:101A10009DE704239BE7082399E7042397E708231E
:101A200095E7042393E7082391E7082B42D8DFE8E2
:101A300003F0051722412D414141380000F05CFEC2
:101A40006268530803EB4003B3FBF2F39BB2002040
:101A500023F00F02C3F3420313432268D36010BD87
:101A600000F060FE6268530803EB4003B3FBF2F33F
:101A70009BB20020ECE76268530803F5740303F59A
:101A80001053B3FBF2F39BB20020E1E700F026FD18
:101A90006268530803EB4003B3FBF2F39BB20020F0
:101AA000D6E76268530803F58033B3FBF2F39BB2C9
:101AB0000020CDE701200023CAE700F01DFE636887
:101AC00000EB5300B0FBF3F0236880B2D860002035
:101AD000C5E700F027FE636800EB5300B0FBF3F0AE
:101AE000236880B2D8600020B9E761684B0803F52D
:101AF000F40303F59053B3FBF1F39BB2D3600020E2
:101B0000ADE700F0EBFC636800EB5300B0FBF3F0D3
:101B1000236880B2D8600020A1E761684B0803F514
:101B20000043B3FBF1F39BB2D360002097E70120A1
:101B300095E700BF003801400044004000480040E5
:101B4000004C004000500040436A13F0010F06D0E3
:101B50000268536823F40033816A0B435360436A7D
:101B600013F0020F06D00268536823F48033C16A71
:101B70000B435360436A13F0040F06D002685368A6
:101B800023F48023016B0B435360436A13F0080F67
:101B900006D00268536823F40043416B0B43536043
:101BA000436A13F0100F06D00268936823F4805341
:101BB000816B0B439360436A13F0200F06D00268D9
:101BC000936823F40053C16B0B439360436A13F093
:101BD000400F0AD00268536823F48013016C0B4352
:101BE0005360036CB3F5801F0BD0436A13F0800F72
:101BF00006D00268536823F40023816C0B435360C2
:101C000070470268536823F4C003416C0B43536070
:101C1000EBE72DE9F04105460F4616469846069C2F
:101C20002B68DB6937EA03030CBF01230023B342AF
:101C30001DD1B4F1FF3FF3D02CB100F031F9A0EB8E
:101C40000800A042ECD92A68136823F4D07313600B
:101C50002A68936823F001039360202385F8693094
:101C600085F86A30002385F86830032000E0002002
:101C7000BDE8F0812DE9F04182B01E4690F8693050
:101C8000DBB2202B4ED104460D46904600294ED0A3
:101C9000002A4ED090F86830012B4CD0012380F8F8
:101CA00068300023C366212380F8693000F0F8F81B
:101CB0000746A4F85080A4F8528003E0236815F882
:101CC000012B1A85B4F852309BB2DBB1B4F8523014
:101CD000013B9BB2A4F8523000963B460022802183
:101CE0002046FFF796FF40BBA368B3F5805FE5D1C0
:101CF0002369002BE2D1226835F8023BC3F30803C5
:101D00001385DFE700963B46002240212046FFF77F
:101D100080FF034698B9202284F86920002284F8C5
:101D2000682000E00223184602B0BDE8F0810123DC
:101D3000F9E70123F7E70223F5E70323F3E703239A
:101D4000F1E730B583B004460023C36600F0A8F87D
:101D5000054623681B6813F0080F0ED123681B6823
:101D600013F0040F17D1202384F8693084F86A3007
:101D7000002084F8680003B030BD6FF07E4300930C
:101D8000034600224FF400112046FFF742FF0028CF
:101D9000E4D00320EFE76FF07E4300932B46002250
:101DA0004FF480012046FFF734FF0028DBD00320EA
:101DB000E1E778B310B5044690F869300BB32423FB
:101DC00084F869302268136823F001031360204609
:101DD000FFF762FD012813D0636ABBB9226853681C
:101DE00023F4904353602268936823F02A0393609E
:101DF0002268136843F0010313602046FFF7A1FF38
:101E000010BD80F86830FEF705FFD8E72046FFF7E1
:101E10009BFEE3E70120704710B504460E4B18788F
:101E20004FF47A73B3FBF0F30C4A1068B0FBF3F095
:101E300000F088FF68B90F2C01D901200AE00022C8
:101E400021464FF0FF3000F03DFF054B1C600020A5
:101E500000E0012010BD00BF5800002060000020FD
:101E60005C00002008B5074A136843F010031360B4
:101E7000032000F015FF0020FFF7CEFFFEF75CFD0A
:101E8000002008BD00200240034A1168034B1B7864
:101E90000B441360704700BF440C00205800002022
:101EA000014B1868704700BF440C002038B5044649
:101EB000FFF7F6FF0546B4F1FF3F02D0044B1B7855
:101EC0001C44FFF7EDFF401BA042FAD338BD00BF12
:101ED00058000020002800F0EB8270B582B0044664
:101EE000036813F0010F3BD0B54B5B6803F00C03A4
:101EF000042B1ED0B24B5B6803F00C03082B13D0ED
:101F00006368B3F5803F68D0002B40F0928003F106
:101F1000804303F504331A6822F480321A601A6889
:101F200022F480221A605DE0A54B5B6813F4803FC9
:101F3000E6D04FF4003393FAA3F3A14B19684FF4A2
:101F4000003393FAA3F3B3FA83F303F01F030122E0
:101F500002FA03F30B4203D06368002B00F0AA825D
:101F6000236813F0020F00F0C580954B5B6813F0F7
:101F70000C0F00F09C80924B5B6803F00C03082B65
:101F800000F08F802369002B00F0F280012292FA8A
:101F9000A2F3B3FA83F303F1845303F584139B0094
:101FA0001A60FFF77DFF0546022393FAA3F3844BE3
:101FB0001968022393FAA3F3B3FA83F303F01F0320
:101FC000012202FA03F30B4240F0C380FFF768FFDF
:101FD000401B0228E8D9032075E2794A136843F4CC
:101FE00080331360764AD36A23F00F03A1680B4352
:101FF000D3626368002B36D0FFF752FF05464FF4DB
:10200000003393FAA3F36E4B19684FF4003393FA3D
:10201000A3F3B3FA83F303F01F03012202FA03F3DD
:1020200019429DD1FFF73CFF401B6428E7D90320EC
:1020300049E2B3F5A02F09D0614B1A6822F480322F
:102040001A601A6822F480221A60CBE703F18043F9
:10205000A3F53C331A6842F480221A601A6842F4ED
:1020600080321A60BEE7FFF71BFF05464FF40033CE
:1020700093FAA3F3524B19684FF4003393FAA3F386
:10208000B3FA83F303F01F03012202FA03F31942A8
:102090003FF466AFFFF704FF401B6428E6D9032036
:1020A00011E2474B5B6813F4803F7FF46BAF022370
:1020B00093FAA3F3424B1968022393FAA3F3B3FAFA
:1020C00083F303F01F03012202FA03F3194203D042
:1020D0002369934240F0F0813948036823F0F80304
:1020E0006169F82292FAA2F2B2FA82F201FA02F2DD
:1020F00013430360236813F0080F00F08D80A36979
:10210000002B61D0012191FAA1F2B2FA82F22D4B9B
:1021100013449B001960FFF7C3FE0546022393FAA0
:10212000A3F293FAA3F293FAA3F2254A516A93FA1F
:10213000A3F3B3FA83F303F01F03012202FA03F3BC
:102140000B4269D1FFF7ACFE401B0228E6D9032001
:10215000B9E11B48036823F0F8036169F82292FA99
:10216000A2F2B2FA82F201FA02F213430360C1E76B
:10217000012393FAA3F3B3FA83F303F1845303F532
:1021800084139B0000221A60FFF78AFE0546022393
:1021900093FAA3F30A4B1968022393FAA3F3B3FA51
:1021A00083F303F01F03012202FA03F31942A1D0C3
:1021B000FFF776FE401B0228E9D9032083E100BF28
:1021C0000010024020819010012292FAA2F2B2FA8D
:1021D00082F2BF4B13449B0000221A60FFF760FE9F
:1021E0000546022393FAA3F293FAA3F293FAA3F219
:1021F000B84A516A93FAA3F3B3FA83F303F01F03C7
:10220000012202FA03F30B4206D0FFF749FE401BFE
:102210000228E6D9032056E1236813F0040F00F0EA
:10222000A980AC4BDB6913F0805F20D1A94BDA6940
:1022300042F08052DA61DB6903F080530193019B25
:102240000125A54B1B6813F4807F12D0E368012B96
:1022500023D073BB03F1804303F504331A6A22F0E1
:1022600001021A621A6A22F004021A621AE00025B8
:10227000E7E7994A136843F480731360FFF710FE91
:102280000646954B1B6813F4807FDFD1FFF708FEED
:10229000801B6428F5D9032015E18E4A136A43F0A8
:1022A00001031362E368002B3CD0FFF7F9FD0646FB
:1022B0002EE0052B09D0874B1A6A22F001021A6220
:1022C0001A6A22F004021A62ECE7824B1A6A42F0A0
:1022D00004021A621A6A42F001021A62E2E7022359
:1022E00093FAA3F37B4B596A022393FAA3F3B3FA4D
:1022F00083F303F01F03012202FA03F3194238D1DA
:10230000FFF7CEFD801B41F28833984200F2D68061
:10231000022393FAA3F293FAA3F3002BDFD06D4BC1
:10232000196AE1E7FFF7BCFD064618E0022393FABD
:10233000A3F3684B596A022393FAA3F3B3FA83F326
:1023400003F01F03012202FA03F3194211D0FFF731
:10235000A7FD801B41F28833984200F2B18002232E
:1023600093FAA3F293FAA3F3002BDFD0594B196A27
:10237000E1E7B5BBE369002B00F0A480554A526841
:1023800002F00C02082A00F0A080022B2FD04FF0A0
:10239000807393FAA3F3B3FA83F303F1845303F541
:1023A00084139B0000221A60FFF77AFD04464FF069
:1023B000007393FAA3F3474B19684FF0007393FA35
:1023C000A3F3B3FA83F303F01F03012202FA03F32A
:1023D00019426BD0FFF764FD001B0228E7D90320E8
:1023E00071E03C4AD36923F08053D361C2E74FF0D8
:1023F000807393FAA3F3B3FA83F303F1845303F5E1
:1024000084139B0000221A60FFF74AFD05464FF037
:10241000007393FAA3F32F4B19684FF0007393FAEC
:10242000A3F3B3FA83F303F01F03012202FA03F3C9
:10243000194206D0FFF734FD401B0228E7D90320DC
:1024400041E024494B6823F47413626A206A024312
:1024500013434B604FF0807393FAA3F3B3FA83F303
:1024600003F1845303F584139B0001221A60FFF7E4
:1024700017FD04464FF0007393FAA3F3154B196848
:102480004FF0007393FAA3F3B3FA83F303F01F033F
:10249000012202FA03F3194206D1FFF701FD001BE6
:1024A0000228E7D903200EE000200CE000200AE01B
:1024B00001207047012006E0012004E0032002E033
:1024C000032000E0002002B070BD0120FBE700BF48
:1024D000208190100010024000700040164B5B6895
:1024E00003F00C02082A01D01448704703F470115D
:1024F0004FF4701292FAA2F2B2FA82F221FA02F2C8
:102500000F49885C0C4AD26A02F00F020F2191FA3F
:10251000A1F1B1FA81F1CA400A498A5C13F4803F03
:1025200005D0064BB3FBF2F300FB03F07047064BFC
:1025300003FB00F0704700BF0010024000127A0059
:10254000FC3600080C37000800093D00002800F0A8
:10255000BD8070B50446614B1B6803F007038B42D6
:102560000BD25E4A136823F007030B431360136812
:1025700003F007038B4240F0AB80236813F0020F97
:1025800006D0574A536823F0F003A0680343536012
:102590000D46236813F0010F5AD06368012B2DD02C
:1025A000022B40D0022292FAA2F24D4A1068022277
:1025B00092FAA2F2B2FA82F202F01F02012101FAAB
:1025C00002F2104200F0868045494A6822F0030278
:1025D00013434B60FFF764FC0646414B5B6803F016
:1025E0000C036268B3EB820F32D0FFF759FC801BFB
:1025F00041F288339842F0D9032066E04FF400326C
:1026000092FAA2F2364A10684FF4003292FAA2F21D
:10261000B2FA82F202F01F02012101FA02F2024232
:10262000D2D1012051E04FF0007292FAA2F22C4A6E
:1026300010684FF0007292FAA2F2B2FA82F202F03F
:102640001F02012101FA02F21042BDD101203CE03B
:10265000224B1B6803F00703AB420AD91F4A1368D9
:1026600023F007032B431360136803F00703AB4207
:1026700032D1236813F0040F06D0194A536823F4AB
:10268000E063E1680B435360236813F0080F07D041
:10269000134A536823F46053216943EAC10353602A
:1026A000FFF71CFF0E4B5B6803F0F003F02292FA79
:1026B000A2F2B2FA82F2D3400A4AD35CD8400A4B63
:1026C00018600020FFF7A8FB002070BD01207047B4
:1026D0000120FAE70120F8E70120F6E70020024098
:1026E000001002401C37000860000020014B1868F1
:1026F000704700BF6000002008B5FFF7F7FF074BE9
:102700005B6803F4E0634FF4E06292FAA2F2B2FA7B
:1027100082F2D340024AD35CD84008BD0010024088
:102720002C37000808B5FFF7E1FF074B5B6803F49F
:1027300060534FF4605292FAA2F2B2FA82F2D3409E
:10274000024AD35CD84008BD001002402C37000874
:10275000F0B583B00446036813F4803F48D0914B32
:10276000DB6913F0805F40F0D5808E4BDA6942F070
:102770008052DA61DB6903F080530193019B0125EC
:10278000894B1B6813F4807F00F0C680854B1B6A61
:1027900013F4407322D0626802F440729A421DD052
:1027A0008048016A21F440764FF4803393FAA3F213
:1027B000B2FA82F27D4F3A4492004FF0010CC2F817
:1027C00000C093FAA3F3B3FA83F33B449B000022C7
:1027D0001A60066211F0010F40F0B380714A136A6B
:1027E00023F4407361680B431362002D40F0D080E6
:1027F000236813F0010F06D06A4A136B23F003031A
:10280000A1680B431363236813F0020F06D0654AD7
:10281000136B23F44033E1680B431363236813F015
:10282000040F06D05F4A136B23F4402321690B4346
:102830001363236813F0200F06D05A4A136B23F05A
:102840001003E1690B431363236813F4003F06D0C0
:10285000544A536823F48003A16B0B4353602368ED
:1028600013F0400F06D04F4A136B23F02003216A68
:102870000B431363236813F0080F06D0494A136B08
:1028800023F4401361690B431363236813F0100FA3
:1028900006D0444A136B23F44003A1690B4313632E
:1028A000236813F4007F06D03E4A536823F40003E4
:1028B000E16A0B435360236813F0800F06D0394A56
:1028C000D36A23F4F873616A0B43D362236813F469
:1028D000807F06D0334AD36A23F47853A16A0B432E
:1028E000D362236813F4805F06D02E4A136B23F45F
:1028F0008073216B0B431363236813F4005F4ED086
:10290000284A136B23F40073616B0B43136300209D
:1029100003B0F0BD002533E7234A136843F4807306
:102920001360FFF7BDFA06461F4B1B6813F4807F48
:102930007FF42CAFFFF7B4FA801B6428F4D903208E
:10294000E6E7FFF7ADFA064615E0164B196A0223D3
:1029500093FAA3F3B3FA83F303F01F03012202FAFD
:1029600003F30B427FF43AAFFFF79AFA801B41F270
:102970008833984211D8022393FAA3F293FAA3F36F
:10298000002BE2D1022393FAA3F3064B596ADEE748
:10299000D36923F08053D3612AE70320B8E70020EE
:1029A000B6E700BF001002400070004000819010A8
:1029B000F0B482B0002336E0042400E00024B440E8
:1029C0003C4302355B4E46F825405B4C2568D443BA
:1029D00004EA05064F6817F4803F01D042EA050675
:1029E000554D2E606D6804EA05064F6817F4003FE8
:1029F00001D042EA0506504D6E60AD6804EA050656
:102A00004F6817F4801F01D042EA05064A4DAE60B8
:102A1000ED682C404E6816F4001F01D042EA050410
:102A2000454AD46001330A6832FA03F47ED00124A7
:102A30009C402240F6D04D68022D01D0122D10D1BD
:102A4000DE08083650F826C003F00705AF000F2552
:102A5000BD402CEA050C0D69BD4045EA0C0540F867
:102A6000265006685F000325BD40ED4305EA060CCD
:102A70004E6806F00306BE4046EA0C0606604E6845
:102A800006F1FF3CBCF1010F03D9112E01D0122E2B
:102A900010D1866805EA060CCE68BE4046EA0C06F0
:102AA0008660466826EA04044E68C6F300169E4017
:102AB00026434660C46825408C68BC402C43C460F3
:102AC0004C6814F0805FADD01C4CA56945F0010541
:102AD000A561A46904F001040194019C9D08AE1C49
:102AE000144C54F8267003F00304A6000F24B440DD
:102AF00027EA0407B0F1904F3FF460AF104CA042BA
:102B00000ED004F58064A0420CD004F58064A0428D
:102B10000AD004F58064A0423FF44EAF05244EE78E
:102B200001244CE702244AE7032448E702B0F0BC42
:102B3000704700BF00000140000401400010024047
:102B4000000400480AB1816170478162704700004B
:102B500002680C4B9A420AD80B4B13440B4AA2FB57
:102B600003231B099B000364094BC3637047094B94
:102B70001344064AA2FB03231B099B000364064B74
:102B8000C363704707040240F8FFFDBFCDCCCCCC37
:102B900000000240F8FBFDBF0004024020B310B566
:102BA0000446022380F8213001680A6822F47F522B
:102BB00022F03002436880680343E06803432069E1
:102BC000034360690343A0690343E069034313437C
:102BD0000B602046FFF7BCFF0020A063012384F8B0
:102BE000213084F8200010BD0120704738B5C36B38
:102BF0001A6804682568016C04238B40134213D0C3
:102C000015F0040F10D0236813F0200F03D12368B0
:102C100023F004032360016CC26B04238B405360D8
:102C2000C36A03B1984738BD02238B4013421AD0C0
:102C300015F0020F17D0236813F0200F06D1236878
:102C400023F00A032360012380F82130016CC26B5A
:102C500002238B405360002380F82030836A002BCE
:102C6000E1D09847DFE7082303FA01F11142DAD0F7
:102C700015F0080FD7D0236823F00E032360026CF1
:102C8000C16B012303FA02F24A60836380F82130AA
:102C9000002380F82030036B002BC4D09847C2E794
:102CA000074AD36823F4E0631B041B0C000200F402
:102CB000E060184340F0BF6040F40030D0607047DF
:102CC00000ED00E030B4174BDB68C3F30223C3F11F
:102CD0000704042C28BF04241D1D062D01D9033B25
:102CE00000E000234FF0FF3505FA04F421EA040167
:102CF000994005FA03F322EA03031943002809DB8C
:102D00000901C9B200F1604000F5614080F800138C
:102D100030BC704700F00F000901C9B2024B1954D2
:102D2000F6E700BF00ED00E014ED00E000F01F0248
:102D3000400901239340024A42F82030704700BF07
:102D400000E100E00138B0F1807F0AD2064B586004
:102D5000064AF02182F823100020986007221A60AA
:102D600070470120704700BF10E000E000ED00E078
:102D70001549D1F8883043F47003C1F88830134BFB
:102D80001A6842F001021A605868114A02405A60FB
:102D90001A6822F0847222F480321A601A6822F4CF
:102DA00080221A605A6822F4FE025A60DA6A22F01F
:102DB0000F02DA62186B074A02401A6300229A6017
:102DC0004FF000638B60704700ED00E000100240A0
:102DD0000CC07FF8CCFC00FFDFF834D0002103E00A
:102DE0000C4B5B58435004310B480C4B42189A4231
:102DF000F6D30B4A02E0002342F8043B094B9A4207
:102E0000F9D3FFF7B5FF00F011F8FDF717FDFEE766
:102E1000008000207037000800000020C80000205B
:102E2000C8000020580C0020FEE7000070B50D4DD2
:102E30000D4C641BA4100026A64209D10B4D0C4C6E
:102E400000F048FC641BA4100026A64205D170BD0A
:102E500055F8043B98470136EEE755F8043B984790
:102E60000136F2E76837000868370008683700085D
:102E70006C37000802440346934200D1704703F8C0
:102E8000011BF9E70EB400B59CB01DAB0290069093
:102E90006FF00041094807910491094953F8042B48
:102EA00005910068019302A900F068F8029B0022D6
:102EB0001A701CB05DF804EB03B07047640000208A
:102EC0000802FFFF2DE9F0478E689E4282460C46BD
:102ED0009146984638D8B1F80CC01CF4906F31D0A8
:102EE00062692568096902EB42026F1A02EBD2722D
:102EF000013355103B449D4238BF1D461CF4806F82
:102F000030D0294600F032FB064650B90C23CAF8EF
:102F10000030A38943F04003A3814FF0FF30BDE8A8
:102F2000F0873A46216900F0ABFAA38923F4906355
:102F300043F08003A381266165613E44ED1B26605A
:102F4000A5604646464500D9464632464946206871
:102F500000F0A4FAA3689B1BA36023681E442660AC
:102F60000020DCE72A4600F05BFB06460028E2D1A1
:102F70002169504600F0ACFAC8E700002DE9F04F97
:102F80001E468B891B069DB007460D4614460ED57E
:102F90000B6963B9402100F0E9FA2860286120B983
:102FA0000C233B604FF0FF30C9E040236B610023EE
:102FB000099320238DF82930DFF89C910396302364
:102FC0008DF82A304FF0010A23461E4613F8012BD4
:102FD0000AB1252AF9D1B6EB040B0BD05B46224689
:102FE00029463846FFF76EFF013000F0A380099BA9
:102FF0005B4409933378002B00F09C8000234FF052
:10300000FF32CDE905230136049307938DF8533041
:103010001A933446052214F8011B4F48FDF7D8F8DF
:10302000049BC0B9D90644BF20228DF853201A074B
:1030300044BF2B228DF8532032782A2A13D0079AC6
:10304000344600200A26214611F8013B303B092B6B
:103050004BD970B914E0A0EB09000AFA00F018434C
:1030600004902646D5E7039A111D12680391002AA1
:1030700001DB079204E0524243F0020307920493FB
:1030800023782E2B0CD163782A2B33D1039B1A1D66
:103090001B680392002BB8BF4FF0FF330234059337
:1030A0002E4E217803223046FDF792F838B14023A6
:1030B000801B03FA00F0049B03430134049314F8CB
:1030C000011B27488DF828100622FDF781F80028FB
:1030D00038D0244B13BB039B073323F0070308337B
:1030E0000393099B434409936EE706FB02320120D8
:1030F0000C46A8E700230134059319460A2620460A
:1031000010F8012B303A092A03D9002BC8D00591B9
:10311000C6E706FB012101230446F0E703AB009359
:103120002A46114B04A93846AFF30080B0F1FF3FA7
:103130008046D6D1AB895B063FF534AF09981DB008
:10314000BDE8F08F03AB00932A46074B04A938462D
:1031500000F082F8EAE700BF343700083A37000889
:103160003E37000800000000C52E00082DE9F0479A
:1031700091461F468A680B69DDF820809342B8BFEC
:103180001346C9F8003091F8432006460C4612B1A8
:103190000133C9F800302368990642BFD9F80030DE
:1031A0000233C9F80030256815F0060507D104F18F
:1031B000190AE368D9F800209B1AAB4228DC94F87E
:1031C00043302268003318BF012392062DD404F146
:1031D000430239463046C047013020D02368E568B5
:1031E000D9F8002003F00603042B08BFAD1AA3682A
:1031F00022690CBF25EAE57500259342C4BF9B1ADE
:10320000ED184FF000091A344D451AD1002008E09E
:103210000123524639463046C047013003D14FF0B2
:10322000FF30BDE8F0870135C3E7E1185A1C3020B4
:1032300081F84300224494F8451082F84310023389
:10324000C5E70123224639463046C0470130E6D063
:1032500009F10109D8E700002DE9F04306460C46C4
:1032600001F14300097E85B06E29984617460C9BF4
:1032700000F0BA8024D8632939D00AD8002900F098
:10328000C380582900F0918004F1420584F842106F
:1032900035E0642901D06929F6D125681A6815F04E
:1032A000800F02F104012CD012681960002A03DAA1
:1032B0002D23524284F84330DFF8BCC10A233FE09B
:1032C000732900F0A58008D86F2921D07029DBD19F
:1032D000226842F02002226003E0752918D0782984
:1032E000D2D1782284F84520DFF890C161E01A68D5
:1032F000111D1960136884F8423004F1420501235E
:1033000093E01268196015F0400F18BF12B2CDE7B4
:10331000D4F800C01A681CF0800F02F104051D608B
:1033200001D0126803E01CF0400FFAD01288DFF8D9
:1033300048C16F290CBF08230A23002184F84310D9
:103340006568A560002DA2BF216821F004012160FD
:103350000AB9002D46D00546B2FBF3F103FB112E4E
:1033600093421CF80EE005F801ED39D9082B0BD17A
:103370002368DA0708D5236962689A42DEBF3023E2
:1033800005F8013C05F1FF35401B2061CDF80080B8
:103390003B4603AA21463046FFF7E8FE013049D1FB
:1033A0004FF0FF3005B0BDE8F083DFF8CCC084F803
:1033B00045101D68216855F8042B1D600D060BD5BE
:1033C000CD0744BF41F0200121601AB9236823F0E2
:1033D000200323601023B0E74B0648BF92B2EFE70B
:1033E0000A46B9E70546C1E71A68D4F800C0616922
:1033F000151D1D601CF0800F136801D0196003E0DB
:103400001CF0400FFAD01980002323610546BDE768
:103410001A68111D19601568626800212846FCF7BA
:10342000D7FE08B1401B606063682361002384F805
:103430004330ABE723692A4639463046C04701305E
:10344000AED023689B0713D4E068039B9842B8BFB3
:103450001846A7E701234A4639463046C04701309F
:103460009ED00135E368039A9B1AAB42F2DCEBE78E
:10347000002504F11909F5E745370008563700081B
:103480000A44914200F1FF3300D1704710B511F8A2
:10349000014B03F8014F9142F9D110BD884210B59C
:1034A00001EB020302D983421C4607D8421E99420F
:1034B00008D011F8014B02F8014FF8E783189A1A67
:1034C0009A4200D110BD14F8011D03F8011DF7E761
:1034D00038B50546002945D051F8043C0C1F002B97
:1034E000B8BFE41800F0D2F81F4A1368104633B989
:1034F000636014602846BDE8384000F0CDB8A342B0
:103500000CD921686218934204BF1A685B68636033
:1035100004BF521822600460ECE713465A680AB1EF
:10352000A242FAD919685818A0420BD12068014468
:10353000581882421960DDD1106852685A600144FF
:103540001960D7E702D90C232B60D3E72068211834
:103550008A4204BF11685268626004BF0918216082
:103560005C60C7E738BD00BF08010020F8B5CD1C7E
:1035700025F0030508350C2D38BF0C25002D064617
:1035800001DBA94203D90C2333600020F8BD00F011
:103590007DF821490A6814469CB9204F3B6823B93D
:1035A0002146304600F062F838602946304600F087
:1035B0005DF8431C23D10C233360304600F06CF8D7
:1035C000E3E723685B1B17D40B2B03D923601C4450
:1035D000256004E06368A2420CBF0B605360304674
:1035E00000F05AF804F10B00231D20F00700C21A66
:1035F000CCD01B1AA350C9E722466468CCE7C41C90
:1036000024F00304A042E3D0211A304600F02EF843
:103610000130DDD1CFE700BF080100200C01002000
:10362000F8B5074614460E4621B91146BDE8F840E4
:10363000FFF79CBF22B9FFF74BFF25462846F8BD90
:1036400000F030F8A0420FD221463846FFF78EFF37
:1036500005460028F2D031462246FFF711FF3146D9
:103660003846FFF735FFE9E73546E7E738B5064C5A
:10367000002305460846236000F01EF8431C02D1D3
:10368000236803B12B6038BD480C0020014800F0CE
:1036900011B800BF500C0020014800F00CB800BF6A
:1036A000500C002051F8043C181F002BBCBF0B58D5
:1036B000C018704770477047044A05491368002BCB
:1036C00008BF0B46184410601846704710010020D0
:1036D000580C0020F8B500BFF8BC08BC9E467047E7
:0C36E000F8B500BFF8BC08BC9E4670475F
:1036EC0048656C6C6F20576F726C640A0D0000009B
:1036FC0002030405060708090A0B0C0D0E0F101027
:10370C000102030405060708090A0B0C0D0E0F1025
:10371C000000000000000000010203040607080975
:10372C000000000001020304232D302B2000686CE4
:10373C004C006566674546470030313233343536C8
:10374C003738394142434445460030313233343501
:0C375C003637383961626364656600002E
:04376800B50100089F
:04376C0091010008BF
:103770000000000F030000000000000000800800AF
:103780002000000000000048000400480004004839
:1037900000200040000800480008004814010020F4
:1037A0000000000000000000000000000000000019
:1037B0000000000000000000000000000000000009
:1037C00000000000000000000100000010000000E8
:1037D00000127A00680000200000000000000000D5
:1037E00000000000000000000000000000000000D9
:1037F00000000000000000000000000000000000C9
:1038000000000000000000000000000000000000B8
:1038100000000000000000000000000000000000A8
:103820000000000000000000000000000000000098
:08383000000000000000000090
:0400000508002DD9E9
:00000001FF
