:020000040800F2
:1000000000800020AD240008D1050008D3050008B9
:10001000D5050008D7050008D90500080000000034
:10002000000000000000000000000000DB050008E8
:10003000DD05000800000000DF050008E1050008FC
:10004000FD240008FD240008FD240008FD2400080C
:10005000FD240008FD240008FD240008FD240008FC
:10006000FD240008FD240008FD240008FD240008EC
:10007000FD240008FD240008FD240008FD240008DC
:10008000FD240008FD240008FD240008FD240008CC
:10009000FD240008FD240008FD240008FD240008BC
:1000A000FD240008FD240008FD240008FD240008AC
:1000B000FD240008FD240008FD240008FD2400089C
:1000C000FD240008FD240008FD240008FD2400088C
:1000D000FD240008FD240008FD240008FD2400087C
:1000E000FD240008FD240008FD240008FD2400086C
:1000F000FD240008FD240008FD240008FD2400085C
:10010000000000000000000000000000FD240008C6
:10011000FD240008FD240008FD240008FD2400083B
:10012000FD240008FD240008FD240008FD2400082B
:10013000FD240008FD24000800000000000000006D
:10014000FD240008FD240008FD2400080000000034
:10015000000000000000000000000000000000009F
:100160000000000000000000FD240008FD2400083D
:10017000FD24000800000000000000000000000056
:0801800000000000FD2400084E
:1001880010B5054C237833B9044B13B10448AFF3C9
:1001980000800123237010BD200000200000000013
:1001A8005825000808B5034B1BB103490348AFF3B2
:1001B800008008BD00000000240000205825000829
:1001C80070B58AB0002406940794089409942F4BBC
:1001D8005A6942F400225A615A6902F400220192D3
:1001E800019A5A6942F480025A615A6902F48002FB
:1001F8000292029A5A6942F400325A615A6902F428
:1002080000320392039A5A6942F480225A615B6968
:1002180003F480230493049B4EF6C073059305A949
:100228001B4801F0DFFF032505950694079405A9EF
:10023800184801F0D7FF44F6044305930694079441
:10024800154E05A9304601F0CDFF4FF4C85305936C
:100258000694079405A94FF0904001F0C3FF2823A6
:100268000593012406940794089505A9304601F0E2
:10027800B9FF4FF40043059306940794089505A920
:100288004FF0904001F0AEFF0AB070BD0010024080
:1002980000080048001400480004004870B58AB0FF
:1002A80000240794089409940194029403940494F4
:1002B80005940694134D4FF0A0432B606C60AC601E
:1002C8002C61EC616C622C630126EE62EC602E629C
:1002D8006C6304236B61AC61AC63284600F038FBA7
:1002E800079407A9284600F04DFE0196029604944B
:1002F80003940594069401A9284600F06FFC0AB0FF
:1003080070BD00BFF800002070B586B000240094CE
:1003180001940294039404940594114D114B2B609D
:100328006C60AC602C61EC616C622C630126EE623F
:10033800EC602E626C6304236B61AC61AC6328468D
:1003480000F006FB022300930196039402940494A0
:1003580005946946284600F041FC06B070BD00BF10
:10036800A40000200001005070B58AB00024079452
:1003780008940994019402940394049405940694AF
:10038800124D134B2B606C60AC602C61EC616C629D
:100398002C630126EE62EC602E626C6304236B61B1
:1003A800AC61AC63284600F0D3FA079407A9284645
:1003B80000F0E8FD019602960494039405940694CF
:1003C80001A9284600F00AFC0AB070BD4C010020C3
:1003D8000004005008B50E480E4B03604FF48273BA
:1003E8004360002383604FF4E062C26003614361AD
:1003F8004FF4802282612822C261036243628362D1
:100408000722C26203630823436300F067FE08BD46
:10041800400000200038004008B50948094B036037
:100428004FF41643436000238360C36003610C22CA
:1004380042618361C3610362436201F0D3F808BD7E
:10044800A00100200038014030B59FB020220021D3
:1004580015A802F075F800240F94109411941294C2
:1004680013943C222146684602F06AF80225149546
:1004780001231893102319931B954FF460131D93B0
:1004880014A801F041F90F230F93109511944FF41C
:1004980080631293139429460FA801F071FC40F26F
:1004A8008113009302944FF4807309934FF400531F
:1004B8000A93684601F066FD1FB030BD08B501F02B
:1004C800EBF8FFF7C1FFFFF77BFEFFF7E7FEFFF74B
:1004D8001BFFFFF749FFFFF77DFFFFF79DFF08BDF3
:1004E80070B5054600220188806801F045FF17268F
:1004F80021E00022A988286901F03EFF01226988CD
:10050800E86801F039FF013C64B2002C11DB0022DD
:100518006988E86801F030FF114B33F81630234141
:1005280013F0010FE5D00122A988286901F024FF02
:10053800E4E7013E36B2002E01DB0B24E5E700229A
:100548006988E86801F018FF01222988A86801F085
:1005580013FF00222988A86801F00EFF70BD00BFB4
:1005680074020020B1F5805F01D340F6FF711828AE
:1005780002D8024B23F81010704700BF7402002005
:100588000023172B05DC034A002122F8131001333E
:10059800F7E770477402002010B5FFF78FFF0024BB
:1005A800172CFCDCFFF7ECFF40F6FF71A0B2FFF759
:1005B800D9FF0448FFF794FF322001F091F8013485
:1005C800EEE700BF000000207047FEE7FEE7FEE709
:1005D800FEE770477047704708B501F06FF808BD2F
:1005E80082B00A4B9A6942F001029A619A6902F054
:1005F80001020092009ADA6942F08052DA61DB69FE
:1006080003F080530193019B02B070470010024031
:1006180030B58FB0002309930A930B930C930D9375
:100628000368B3F1A04F07D0504A93424BD0504AC9
:1006380093427FD00FB030BD4E4A13680133136028
:10064800012B35D04C4B5A6942F400225A615A6941
:1006580002F400220192019A5A6942F400325A6166
:100668005A6902F400320292029A5A6942F48002EC
:100678005A615B6903F480030393039B0F25099573
:1006880003240A9409A93D4801F0ACFD09950A9490
:1006980000250B9509A94FF0904001F0A3FD102308
:1006A80009930A940B9509A9354801F09BFDC1E708
:1006B800314B5A6942F080525A615B6903F08053AA
:1006C8000093009BBEE72B4A136801331360012B8C
:1006D80025D0294B5A6942F400325A615A6902F40A
:1006E80000320592059A5A6942F400225A615B6900
:1006F80003F400230693069BF023099303240A942A
:1007080009A94FF0904001F06DFD302309930A9438
:1007180000230B9309A9194801F064FD8AE7164BD9
:100728005A6942F080525A615B6903F0805304931E
:10073800049BCEE7104B5A6942F000525A615A693D
:1007480002F000520792079A5A6942F480225A61CD
:100758005B6903F480230893089B032309930A9396
:1007680009A9084801F03EFD64E700BF00010050F8
:10077800000400503C00002000100240000800481F
:10078800001400480004004870B58AB0002305939F
:10079800069307930893099303682F4A934204D05A
:1007A8002E4A934237D00AB070BD2D4B9A6942F455
:1007B80080529A619A6902F480520092009A5A69AA
:1007C80042F400325A615A6902F400320192019AE5
:1007D8005A6942F480225A615B6903F480230293C8
:1007E800029B4FF4004305930226069603250895BD
:1007F8000524099405A94FF0904001F0F3FC282343
:1008080005930696002307930895099405A91548AA
:1008180001F0E8FCC7E7124BDA6942F48042DA617A
:10082800DA6902F480420392039A5A6942F48022F8
:100838005A615B6903F480230493049B4FF43043AB
:10084800059302230693032308930523099305A917
:10085800044801F0C7FCA6E700300140003800401A
:10086800001002400004004800B589B0002303933B
:1008780004930593069307930268144B9A4202D097
:1008880009B05DF804FB03F558439A6942F48042C5
:100898009A619A6902F480420192019A5A6942F473
:1008A80000325A615B6903F400330293029B4FF4F0
:1008B800C063039302230493032306930723079338
:1008C80003A94FF0904001F08DFCD9E700380140B2
:1008D80038B50268936803F00303012B01D00020A8
:1008E80038BD136813F0010F2FD0936803F00D0380
:1008F800012B09D0436C43F010034364836C43F02D
:10090800010383640120EBE70446936843F0020384
:100918009360036803221A6000F0DCFE0546236832
:100928009B6813F0010F0ED000F0D4FE401B022884
:10093800F5D9636C43F010036364A36C43F00103BF
:10094800A3640120CCE70020CAE70020C8E7000024
:1009580030B597B000230093002800F02D8104469D
:10096800436C13F0100F52D1436CABB100202368D5
:100978009A6812F0805F03D09B6813F0005F47D03D
:10098800636C23F0120343F010036364A36C43F019
:100998000103A36401203BE083640365C36480F81A
:1009A8004030FFF735FE23689B6813F0805F01D065
:1009B8000020DCE72046FFF78BFF636C13F0100F75
:1009C800D5D10028D3D1636C23F4885323F00203D4
:1009D80043F0020363642268936823F040539360F2
:1009E8002268936843F080539360744B1B68744A81
:1009F800A2FB03239B0C03EB83035A00009202E043
:100A0800009B013B0093009B002BF9D1AFE700202E
:100A1800636C13F0100F40F0C680002840F0C380CC
:100A28002368996811F0040140F0BD80626C22F4DB
:100A3800817242F002026264B3F1A04F14D0614A9D
:100A480093420FD0604DB3F1A04F0FD05D4A93424F
:100A580065D05E4A934266D05D4A934267D00022D1
:100A6800019205E05B4DEEE75A4DECE7554A0192DD
:100A78009A6802F00302012A5DD0019B23B19A68AB
:100A880002F00302012A5BD0AB6823F440336268AA
:100A98001343AB60E2695303A56B012D01D04FF4FA
:100AA80080510B43E1680B43A1680B43616A01293C
:100AB8004BD0E26A012A0AD02168444DA94257D096
:100AC80005F58075A94253D0216B0A431343226868
:100AD800916811F00C0F0BD1D16821F4804121F0FD
:100AE8000201D160A169626B520042EA813213436C
:100AF8002168CD68384A2A401343CB602369012B0B
:100B080048D02268136B23F00F0313630023A364F8
:100B1800636C23F0030343F0010363644AE04FF07E
:100B2800A0420192A4E702F580720192A0E7A2F523
:100B3800807201929CE71B6813F0010FAAD19CE711
:100B48001B6813F0010FA5D19EE732B9A26A013ADA
:100B580043EA424343F48033ABE7626C22F022025B
:100B680042F020026264A26C42F00102A264A0E793
:100B7800B2F5307F08D0B2F5807F08D0B2F5E07FBB
:100B8800A2D14FF480729FE74FF4E0729CE74FF4D4
:100B9800307299E721680B6B23F00F03226A013A40
:100BA80013430B63B2E7636C23F0120343F01003A3
:100BB8006364012017B030BD0120FBE71C00002052
:100BC80083DE1B4300010050000700500004005062
:100BD800000500500003005007C0F0FF30B496B085
:100BE8000022009290F84020012A00F0B8810346C4
:100BF800012280F840200068826812F0040F40F05B
:100C0800A3814A68042A31D8046B02EB42025500DA
:100C18001F22AA4024EA02020C68AC402243026365
:100C28001868826812F00C0F68D10A68092A4ED930
:100C3800846902EB42021E3A0725954024EA05041E
:100C48008D6805FA02F22243826148691C68E268ED
:100C5800C2F3C102520000FA02F2086901380328FF
:100C680000F29580DFE800F040727D88092A0ED8EE
:100C7800446B02EB420255001E3D1F22AA4024EAA3
:100C880002020C6804FA05F52A434263C8E70E2AF3
:100C98000ED8846B02EB420255003C3D1F22AA404D
:100CA80024EA02020C6804FA05F52A438263B7E7CE
:100CB800C46B02EB420255005A3D1F22AA4024EAA7
:100CC80002020C6804FA05F52A43C263A8E74469DE
:100CD80002EB42020725954024EA05048D6805FACF
:100CE80002F222434261B0E7206E9E4D054008683B
:100CF80042EA8062154345F0004525661868826817
:100D080002F00302012A72D0CA68012A75D0D0F80D
:100D1800B0200D680124AC4022EA0402C0F8B020DB
:100D28001A68B2F1A04F00F093808F48824200F019
:100D38008D808E4C0868102800F08C80112800F0F7
:100D48009D80122800F09F80002002E1606E854D92
:100D58000540086842EA8062154345F0004565662B
:100D6800CCE7A06E7F4D0540086842EA80621543D3
:100D780045F00045A566C1E7E56E7A4828400D684C
:100D880042EA8562024342F00042E266B6E7226E1A
:100D980002F0F8420868B2EB806F03D1226E22F0AD
:100DA800004222661A68506E00F0F8400C68B0EBFA
:100DB800846F03D1506E20F0004050661A68906E20
:100DC80000F0F8400C68B0EB846F03D1906E20F00F
:100DD800004090661A68D06E00F0F8400C68B0EBDE
:100DE800846F8BD1D06E20F00040D06686E7026811
:100DF80012F0010F88D00020ABE0D0F8B0200D68C9
:100E08000124AC402243C0F8B0200A68092A0ED950
:100E18001D68A86902EB42021B3A0724944020EAA5
:100E280004008C6804FA02F20243AA6178E71D689C
:100E38006869013202EB42020724944020EA040068
:100E48008C6804FA02F202436A6169E7484C71E768
:100E5800474C6FE7A56815F4000F7FF46FAFB2F148
:100E6800A04F16D0404882422CD0424882422DD012
:100E7800414882422DD0002201920DE0A56815F06C
:100E8800807FECD05DE7A06810F4800FE7D00020E9
:100E98005FE002F5807201921868826802F003022E
:100EA800012A19D0019A22B1956805F00305012D90
:100EB8001CD00A68102A1ED0112A36D0122A3DD01A
:100EC800002046E04FF0A0420192E5E72A4A01924D
:100ED800E2E7284A0192DFE7026812F0010FE1D049
:100EE8005A6C42F020025A64012032E0126812F073
:100EF800010FF5D1DDE7B0F1A04FDDD1A26842F4D2
:100F08000002A2601D4A12681D49A1FB0212920C40
:100F180002EB82025100009102E0009A013A00922D
:100F2800009A002AF9D1002013E0B0F1A04FC5D1F2
:100F3800A26842F08072A26000200AE0A26842F42F
:100F48008002A260002004E05A6C42F020025A6439
:100F58000120002283F8402016B030BC70470220E0
:100F6800FAE700BF00F0FF830001005000070050BF
:100F78000003005000040050000500501C00002031
:100F880083DE1B4370B497B003460268B2F1A04FEA
:100F98000BD04D48824248D04C48824249D04C48F8
:100FA80082424AD00020019001E047480190019810
:100FB800002800F0848093F84040012C00F08180E4
:100FC800012483F84040946814F0040F6CD18468BD
:100FD80014F0040F68D1B2F1A04F34D03A4CA242B9
:100FE8002FD03C4A0C68002C3BD0946824F4604411
:100FF8004D685E6B45EA46352C4394601D68AC68C5
:1010080004F00304012C20D0846804F00304012CAC
:1010180021D0906820F4716020F00F000C68896876
:101028000C4320439060002043E04FF0A040019023
:10103800BDE700F580700190B9E7A0F580700190D8
:10104800B5E7254ACEE7244ACCE72C6814F0010F0F
:10105800DAD000202DE0006810F0010FD9D0002070
:1010680027E0916821F4604191601C68A16801F053
:10107800030101290CD0816801F0030101290DD079
:10108800916821F4716121F00F019160002010E056
:10109800216811F0010FEED000200AE0016811F07C
:1010A800010FEDD0002004E05A6C42F020025A648F
:1010B8000120002283F8402017B070BC704701203F
:1010C800FAE70220F8E700BF0001005000040050D2
:1010D800000500500007005000030050002858D0B9
:1010E80010B504460023836290F85D30002B45D08C
:1010F800022384F85D302268136823F040031360EC
:10110800E368B3F5E06F3ED90022B3F5706F04D001
:10111800B3F5E06F01D00021A162216B21B9B3F5CD
:10112800E06F33D9022323636368A1680B43216905
:101138000B4361690B43A16901F400710B43E16939
:101148000B43216A0B43A06A216803430B60638B3E
:1011580003F00403616A0B43616B0B43E1680B43C3
:10116800216813434B602268D36923F40063D36179
:1011780000202066012384F85D3010BD80F85C30C3
:10118800FFF702FBB4E74FF48052BEE70123236365
:10119800CAE701207047000010B504468368026959
:1011A800134342691343C2691A4301680B6823F465
:1011B800164323F00C0313430B600268536823F4AF
:1011C8004053C1680B4353608369026A1A4301683C
:1011D8008B6823F4306313438B600268954B9A4203
:1011E8000DD0954B9A421DD0944B9A4243D0944BC4
:1011F8009A4258D0934B9A426DD0102327E003F5BA
:1012080058431B6B03F00303032B09D8DFE803F0F3
:101218000204067B01231AE0042318E0082316E0E1
:10122800102314E003F5E6331B6B03F44033B3F5E6
:10123800803F6AD007D9B3F5003F68D0B3F5403F87
:1012480017D1022303E00BB9002300E01023E16962
:10125800B1F5004F69D0082B00F2E980DFE813F000
:10126800AD00B900C500E700D100E700E700E700DE
:10127800DD001023EBE703F5E4331B6B03F4402395
:10128800B3F5802F45D007D9B3F5002F43D0B3F578
:10129800402F06D10223DAE70BB90023D7E7102342
:1012A800D5E71023D3E703F5E2331B6B03F44013B0
:1012B800B3F5801F31D007D9B3F5001F2FD0B3F590
:1012C800401F06D10223C2E70BB90023BFE7102352
:1012D800BDE71023BBE703F5E0331B6B03F44003C2
:1012E800B3F5800F1DD007D9B3F5000F1BD0B3F5A8
:1012F800400F06D10223AAE70BB90023A7E7102362
:10130800A5E71023A3E70223A1E704239FE7082307
:101318009DE704239BE7082399E7042397E708231D
:1013280095E7042393E7082391E7082B42D8DFE8E1
:1013380003F0051722412D414141380000F0F6FD28
:101348006268530803EB4003B3FBF2F39BB200203F
:1013580023F00F02C3F3420313432268D36010BD86
:1013680000F0FAFD6268530803EB4003B3FBF2F3A5
:101378009BB20020ECE76268530803F5740303F599
:101388001053B3FBF2F39BB20020E1E700F0C0FC7E
:101398006268530803EB4003B3FBF2F39BB20020EF
:1013A800D6E76268530803F58033B3FBF2F39BB2C8
:1013B8000020CDE701200023CAE700F0B7FD6368ED
:1013C80000EB5300B0FBF3F0236880B2D860002034
:1013D800C5E700F0C1FD636800EB5300B0FBF3F014
:1013E800236880B2D8600020B9E761684B0803F52C
:1013F800F40303F59053B3FBF1F39BB2D3600020E1
:10140800ADE700F085FC636800EB5300B0FBF3F038
:10141800236880B2D8600020A1E761684B0803F513
:101428000043B3FBF1F39BB2D360002097E70120A0
:1014380095E700BF003801400044004000480040E4
:10144800004C004000500040436A13F0010F06D0E2
:101458000268536823F40033816A0B435360436A7C
:1014680013F0020F06D00268536823F48033C16A70
:101478000B435360436A13F0040F06D002685368A5
:1014880023F48023016B0B435360436A13F0080F66
:1014980006D00268536823F40043416B0B43536042
:1014A800436A13F0100F06D00268936823F4805340
:1014B800816B0B439360436A13F0200F06D00268D8
:1014C800936823F40053C16B0B439360436A13F092
:1014D800400F0AD00268536823F48013016C0B4351
:1014E8005360036CB3F5801F0BD0436A13F0800F71
:1014F80006D00268536823F40023816C0B435360C1
:1015080070470268536823F4C003416C0B4353606F
:10151800EBE72DE9F04105460F4616469846069C2E
:101528002B68DB6937EA03030CBF01230023B342AE
:101538001DD1B4F1FF3FF3D02CB100F0CBF8A0EBF4
:101548000800A042ECD92A68136823F4D07313600A
:101558002A68936823F001039360202385F8693093
:1015680085F86A30002385F86830032000E0002001
:10157800BDE8F08130B583B004460023C36600F0AF
:10158800A9F8054623681B6813F0080F0ED12368D5
:101598001B6813F0040F17D1202384F8693084F8EE
:1015A8006A30002084F8680003B030BD6FF07E43D5
:1015B8000093034600224FF400112046FFF7A9FFCD
:1015C8000028E4D00320EFE76FF07E4300932B461A
:1015D80000224FF480012046FFF79BFF0028DBD054
:1015E8000320E1E778B310B5044690F869300BB3EF
:1015F800242384F869302268136823F001031360F8
:101608002046FFF7C9FD012813D0636ABBB92268D9
:10161800536823F4904353602268936823F02A03A5
:1016280093602268136843F0010313602046FFF7B4
:10163800A1FF10BD80F86830FFF716F9D8E72046FB
:10164800FFF702FFE3E701207047000010B50446EA
:101658000E4B18784FF47A73B3FBF0F30C4A10680A
:10166800B0FBF3F000F0D4FE68B90F2C01D90120CB
:101678000AE0002221464FF0FF3000F095FE054BAE
:101688001C60002000E0012010BD00BF14000020F5
:101698001C0000201800002008B5074A136843F012
:1016A80010031360032000F06DFE0020FFF7CEFF4B
:1016B800FEF796FF002008BD00200240034A11688B
:1016C800034B1B780B441360704700BFA402002033
:1016D80014000020014B1868704700BFA4020020C6
:1016E80038B50446FFF7F6FF0546B4F1FF3F02D0D0
:1016F800044B1B781C44FFF7EDFF401BA042FAD3B4
:1017080038BD00BF14000020002800F0EB8270B53F
:1017180082B00446036813F0010F3BD0B54B5B68F9
:1017280003F00C03042B1ED0B24B5B6803F00C03D0
:10173800082B13D06368B3F5803F68D0002B40F0C6
:10174800928003F1804303F504331A6822F480324F
:101758001A601A6822F480221A605DE0A54B5B6863
:1017680013F4803FE6D04FF4003393FAA3F3A14B70
:1017780019684FF4003393FAA3F3B3FA83F303F031
:101788001F03012202FA03F30B4203D06368002B04
:1017980000F0AA82236813F0020F00F0C580954B71
:1017A8005B6813F00C0F00F09C80924B5B6803F0B1
:1017B8000C03082B00F08F802369002B00F0F280C7
:1017C800012292FAA2F3B3FA83F303F1845303F5E7
:1017D80084139B001A60FFF77DFF0546022393FAE6
:1017E800A3F3844B1968022393FAA3F3B3FA83F3A0
:1017F80003F01F03012202FA03F30B4240F0C380F7
:10180800FFF768FF401B0228E8D9032075E2794AF0
:10181800136843F480331360764AD36A23F00F03C6
:10182800A1680B43D3626368002B36D0FFF752FFE1
:1018380005464FF4003393FAA3F36E4B19684FF43F
:10184800003393FAA3F3B3FA83F303F01F030122DF
:1018580002FA03F319429DD1FFF73CFF401B6428AD
:10186800E7D9032049E2B3F5A02F09D0614B1A68E4
:1018780022F480321A601A6822F480221A60CBE7B8
:1018880003F18043A3F53C331A6842F480221A60BE
:101898001A6842F480321A60BEE7FFF71BFF05465C
:1018A8004FF4003393FAA3F3524B19684FF4003303
:1018B80093FAA3F3B3FA83F303F01F03012202FAA6
:1018C80003F319423FF466AFFFF704FF401B642897
:1018D800E6D9032011E2474B5B6813F4803F7FF49D
:1018E8006BAF022393FAA3F3424B1968022393FACE
:1018F800A3F3B3FA83F303F01F03012202FA03F3FD
:10190800194203D02369934240F0F08139480368B3
:1019180023F0F8036169F82292FAA2F2B2FA82F28D
:1019280001FA02F213430360236813F0080F00F072
:101938008D80A369002B61D0012191FAA1F2B2FA3E
:1019480082F22D4B13449B001960FFF7C3FE054636
:10195800022393FAA3F293FAA3F293FAA3F2254A85
:10196800516A93FAA3F3B3FA83F303F01F03012236
:1019780002FA03F30B4269D1FFF7ACFE401B0228C1
:10198800E6D90320B9E11B48036823F0F80361692D
:10199800F82292FAA2F2B2FA82F201FA02F21343A0
:1019A8000360C1E7012393FAA3F3B3FA83F303F1C6
:1019B800845303F584139B0000221A60FFF78AFE04
:1019C8000546022393FAA3F30A4B1968022393FAF4
:1019D800A3F3B3FA83F303F01F03012202FA03F31C
:1019E8001942A1D0FFF776FE401B0228E9D903204F
:1019F80083E100BF0010024020819010012292FA7A
:101A0800A2F2B2FA82F2BF4B13449B0000221A6082
:101A1800FFF760FE0546022393FAA3F293FAA3F2B6
:101A280093FAA3F2B84A516A93FAA3F3B3FA83F389
:101A380003F01F03012202FA03F30B4206D0FFF75B
:101A480049FE401B0228E6D9032056E1236813F01B
:101A5800040F00F0A980AC4BDB6913F0805F20D144
:101A6800A94BDA6942F08052DA61DB6903F08053EE
:101A78000193019B0125A54B1B6813F4807F12D0AD
:101A8800E368012B23D073BB03F1804303F50433D0
:101A98001A6A22F001021A621A6A22F004021A6211
:101AA8001AE00025E7E7994A136843F48073136046
:101AB800FFF710FE0646954B1B6813F4807FDFD1B5
:101AC800FFF708FE801B6428F5D9032015E18E4A2C
:101AD800136A43F001031362E368002B3CD0FFF75D
:101AE800F9FD06462EE0052B09D0874B1A6A22F02D
:101AF80001021A621A6A22F004021A62ECE7824BA7
:101B08001A6A42F004021A621A6A42F001021A6260
:101B1800E2E7022393FAA3F37B4B596A022393FA71
:101B2800A3F3B3FA83F303F01F03012202FA03F3CA
:101B3800194238D1FFF7CEFD801B41F28833984215
:101B480000F2D680022393FAA3F293FAA3F3002BB0
:101B5800DFD06D4B196AE1E7FFF7BCFD064618E0D8
:101B6800022393FAA3F3684B596A022393FAA3F367
:101B7800B3FA83F303F01F03012202FA03F31942B5
:101B880011D0FFF7A7FD801B41F28833984200F27D
:101B9800B180022393FAA3F293FAA3F3002BDFD0C8
:101BA800594B196AE1E7B5BBE369002B00F0A48043
:101BB800554A526802F00C02082A00F0A080022B55
:101BC8002FD04FF0807393FAA3F3B3FA83F303F1A2
:101BD800845303F584139B0000221A60FFF77AFDF3
:101BE80004464FF0007393FAA3F3474B19684FF07C
:101BF800007393FAA3F3B3FA83F303F01F030122EC
:101C080002FA03F319426BD0FFF764FD001B0228A8
:101C1800E7D9032071E03C4AD36923F08053D361AC
:101C2800C2E74FF0807393FAA3F3B3FA83F303F197
:101C3800845303F584139B0000221A60FFF74AFDC2
:101C480005464FF0007393FAA3F32F4B19684FF032
:101C5800007393FAA3F3B3FA83F303F01F0301228B
:101C680002FA03F3194206D0FFF734FD401B02289D
:101C7800E7D9032041E024494B6823F47413626ACE
:101C8800206A024313434B604FF0807393FAA3F327
:101C9800B3FA83F303F1845303F584139B00012201
:101CA8001A60FFF717FD04464FF0007393FAA3F389
:101CB800154B19684FF0007393FAA3F3B3FA83F343
:101CC80003F01F03012202FA03F3194206D1FFF7BA
:101CD80001FD001B0228E7D903200EE000200CE0DC
:101CE80000200AE001207047012006E0012004E0FE
:101CF800032002E0032000E0002002B070BD0120B4
:101D0800FBE700BF208190100010024000700040E7
:101D1800164B5B6803F00C02082A01D01448704780
:101D280003F470114FF4701292FAA2F2B2FA82F22E
:101D380021FA02F20F49885C0C4AD26A02F00F02BB
:101D48000F2191FAA1F1B1FA81F1CA400A498A5CDE
:101D580013F4803F05D0064BB3FBF2F300FB03F00E
:101D68007047064B03FB00F0704700BF00100240AD
:101D780000127A00702500088025000800093D003F
:101D8800002800F0BD8070B50446614B1B6803F065
:101D980007038B420BD25E4A136823F007030B43F9
:101DA8001360136803F007038B4240F0AB8023688D
:101DB80013F0020F06D0574A536823F0F003A068C7
:101DC800034353600D46236813F0010F5AD063682C
:101DD800012B2DD0022B40D0022292FAA2F24D4ABA
:101DE8001068022292FAA2F2B2FA82F202F01F02FC
:101DF800012101FA02F2104200F0868045494A6842
:101E080022F0030213434B60FFF764FC0646414B84
:101E18005B6803F00C036268B3EB820F32D0FFF704
:101E280059FC801B41F288339842F0D9032066E0C0
:101E38004FF4003292FAA2F2364A10684FF4003298
:101E480092FAA2F2B2FA82F202F01F02012101FA1A
:101E580002F20242D2D1012051E04FF0007292FA10
:101E6800A2F22C4A10684FF0007292FAA2F2B2FA6B
:101E780082F202F01F02012101FA02F21042BDD1E2
:101E880001203CE0224B1B6803F00703AB420AD950
:101E98001F4A136823F007032B431360136803F0EA
:101EA8000703AB4232D1236813F0040F06D0194A56
:101EB800536823F4E063E1680B435360236813F02D
:101EC800080F07D0134A536823F46053216943EA83
:101ED800C1035360FFF71CFF0E4B5B6803F0F00370
:101EE800F02292FAA2F2B2FA82F2D3400A4AD35C02
:101EF800D8400A4B18600020FFF7A8FB002070BDEF
:101F0800012070470120FAE70120F8E70120F6E7F1
:101F18000020024000100240902500081C0000200C
:101F2800014B1868704700BF1C00002008B5FFF778
:101F3800F7FF074B5B6803F4E0634FF4E06292FA43
:101F4800A2F2B2FA82F2D340024AD35CD84008BD6A
:101F580000100240A025000808B5FFF7E1FF074B75
:101F68005B6803F460534FF4605292FAA2F2B2FA3B
:101F780082F2D340024AD35CD84008BD0010024028
:101F8800A0250008F0B583B00446036813F4803F29
:101F980048D0914BDB6913F0805F40F0D5808E4BC1
:101FA800DA6942F08052DA61DB6903F08053019309
:101FB800019B0125894B1B6813F4807F00F0C680C4
:101FC800854B1B6A13F4407322D0626802F4407296
:101FD8009A421DD08048016A21F440764FF480333C
:101FE80093FAA3F2B2FA82F27D4F3A4492004FF08C
:101FF800010CC2F800C093FAA3F3B3FA83F33B448D
:102008009B0000221A60066211F0010F40F0B380B5
:10201800714A136A23F4407361680B431362002DFD
:1020280040F0D080236813F0010F06D06A4A136B82
:1020380023F00303A1680B431363236813F0020F13
:1020480006D0654A136B23F44033E1680B431363EE
:10205800236813F0040F06D05F4A136B23F4402360
:1020680021690B431363236813F0200F06D05A4AE3
:10207800136B23F01003E1690B431363236813F414
:10208800003F06D0544A536823F48003A16B0B43E6
:102098005360236813F0400F06D04F4A136B23F0A8
:1020A8002003216A0B431363236813F0080F06D03B
:1020B800494A136B23F4401361690B431363236884
:1020C80013F0100F06D0444A136B23F44003A169A0
:1020D8000B431363236813F4007F06D03E4A53680A
:1020E80023F40003E16A0B435360236813F0800F65
:1020F80006D0394AD36A23F4F873616A0B43D36272
:10210800236813F4807F06D0334AD36A23F47853C4
:10211800A16A0B43D362236813F4805F06D02E4A6A
:10212800136B23F48073216B0B431363236813F43D
:10213800005F4ED0284A136B23F40073616B0B4386
:102148001363002003B0F0BD002533E7234A13686A
:1021580043F480731360FFF7BDFA06461F4B1B68F4
:1021680013F4807F7FF42CAFFFF7B4FA801B642848
:10217800F4D90320E6E7FFF7ADFA064615E0164B5B
:10218800196A022393FAA3F3B3FA83F303F01F0344
:10219800012202FA03F30B427FF43AAFFFF79AFAEF
:1021A800801B41F28833984211D8022393FAA3F294
:1021B80093FAA3F3002BE2D1022393FAA3F3064B7D
:1021C800596ADEE7D36923F08053D3612AE70320F5
:1021D800B8E70020B6E700BF0010024000700040DA
:1021E80000819010F0B482B0002336E0042400E0AF
:1021F8000024B4403C4302355B4E46F825405B4C16
:102208002568D44304EA05064F6817F4803F01D0D7
:1022180042EA0506554D2E606D6804EA05064F68CA
:1022280017F4003F01D042EA0506504D6E60AD68D4
:1022380004EA05064F6817F4801F01D042EA050634
:102248004A4DAE60ED682C404E6816F4001F01D070
:1022580042EA0504454AD46001330A6832FA03F4B5
:102268007ED001249C402240F6D04D68022D01D03A
:10227800122D10D1DE08083650F826C003F00705E5
:10228800AF000F25BD402CEA050C0D69BD4045EA9D
:102298000C0540F8265006685F000325BD40ED4355
:1022A80005EA060C4E6806F00306BE4046EA0C0630
:1022B80006604E6806F1FF3CBCF1010F03D9112EF0
:1022C80001D0122E10D1866805EA060CCE68BE40F1
:1022D80046EA0C068660466826EA04044E68C6F399
:1022E80000169E4026434660C46825408C68BC4062
:1022F8002C43C4604C6814F0805FADD01C4CA569B9
:1023080045F00105A561A46904F001040194019C4C
:102318009D08AE1C144C54F8267003F00304A60064
:102328000F24B44027EA0407B0F1904F3FF460AFA0
:10233800104CA0420ED004F58064A0420CD004F5E5
:102348008064A0420AD004F58064A0423FF44EAFF6
:1023580005244EE701244CE702244AE7032448E712
:1023680002B0F0BC704700BF00000140000401400B
:1023780000100240000400480AB181617047816280
:1023880070470000074AD36823F4E0631B041B0C62
:10239800000200F4E060184340F0BF6040F40030F1
:1023A800D060704700ED00E030B4174BDB68C3F332
:1023B8000223C3F10704042C28BF04241D1D062D85
:1023C80001D9033B00E000234FF0FF3505FA04F480
:1023D80021EA0401994005FA03F322EA03031943A9
:1023E800002809DB0901C9B200F1604000F561402D
:1023F80080F8001330BC704700F00F000901C9B223
:10240800024B1954F6E700BF00ED00E014ED00E0C0
:102418000138B0F1807F0AD2064B5860064AF02195
:1024280082F823100020986007221A607047012064
:10243800704700BF10E000E000ED00E01549D1F85A
:10244800883043F47003C1F88830134B1A6842F09F
:1024580001021A605868114A02405A601A6822F04C
:10246800847222F480321A601A6822F480221A6078
:102478005A6822F4FE025A60DA6A22F00F02DA621F
:10248800186B074A02401A6300229A604FF00063F3
:102498008B60704700ED00E0001002400CC07FF830
:1024A800CCFC00FFDFF834D0002103E00C4B5B5874
:1024B800435004310B480C4B42189A42F6D30B4A4E
:1024C80002E0002342F8043B094B9A42F9D3FFF794
:1024D800B5FF00F011F8FEF75FF8FEE70080002076
:1024E800B025000800000020200000202000002067
:1024F800A8020020FEE7000070B50D4D0D4C641BCE
:10250800A4100026A64209D10B4D0C4C00F020F86F
:10251800641BA4100026A64205D170BD55F8043BE3
:1025280098470136EEE755F8043B98470136F2E73D
:10253800A8250008A8250008A8250008AC2500083B
:1025480002440346934200D1704703F8011BF9E7A0
:10255800F8B500BFF8BC08BC9E467047F8B500BF88
:08256800F8BC08BC9E46704758
:1025700002030405060708090A0B0C0D0E0F1010C4
:102580000102030405060708090A0B0C0D0E0F10C3
:102590000000000000000000010203040607080913
:0825A000000000000102030429
:0425A800AD01000879
:0425AC008901000899
:1025B00000800800200000000000004800040048DF
:1025C00000040048010000001000000000127A0022
:04000005080024AD1E
:00000001FF
